{"contracts/project.sol":{"project":{"abi":[{"inputs":[],"name":"maxProjectsReached","type":"error"},{"anonymous":false,"inputs":[{"indexed":true,"internalType":"address","name":"previousOwner","type":"address"},{"indexed":true,"internalType":"address","name":"newOwner","type":"address"}],"name":"OwnershipTransferred","type":"event"},{"anonymous":false,"inputs":[{"indexed":false,"internalType":"uint256","name":"projectId","type":"uint256"},{"indexed":false,"internalType":"string","name":"problemStatement","type":"string"},{"indexed":false,"internalType":"string","name":"studentName","type":"string"}],"name":"projectAdded","type":"event"},{"inputs":[{"internalType":"string","name":"problemStatement","type":"string"},{"internalType":"string","name":"studentName","type":"string"}],"name":"addProject","outputs":[],"stateMutability":"nonpayable","type":"function"},{"inputs":[{"internalType":"uint256","name":"projectId","type":"uint256"},{"internalType":"enum project.Feedback","name":"fb","type":"uint8"}],"name":"addVotes","outputs":[],"stateMutability":"nonpayable","type":"function"},{"inputs":[],"name":"currentProjects","outputs":[{"internalType":"uint256","name":"","type":"uint256"}],"stateMutability":"view","type":"function"},{"inputs":[],"name":"maxNumProjects","outputs":[{"internalType":"uint256","name":"","type":"uint256"}],"stateMutability":"view","type":"function"},{"inputs":[],"name":"owner","outputs":[{"internalType":"address","name":"","type":"address"}],"stateMutability":"view","type":"function"},{"inputs":[],"name":"renounceOwnership","outputs":[],"stateMutability":"nonpayable","type":"function"},{"inputs":[{"internalType":"address","name":"newOwner","type":"address"}],"name":"transferOwnership","outputs":[],"stateMutability":"nonpayable","type":"function"}],"devdoc":{"kind":"dev","methods":{"owner()":{"details":"Returns the address of the current owner."},"renounceOwnership()":{"details":"Leaves the contract without owner. It will not be possible to call `onlyOwner` functions. Can only be called by the current owner. NOTE: Renouncing ownership will leave the contract without an owner, thereby disabling any functionality that is only available to the owner."},"transferOwnership(address)":{"details":"Transfers ownership of the contract to a new account (`newOwner`). Can only be called by the current owner."}},"version":1},"evm":{"bytecode":{"linkReferences":{},"object":"60806040526038600155600060025534801561001a57600080fd5b5061002433610029565b610079565b600080546001600160a01b038381166001600160a01b0319831681178455604051919092169283917f8be0079c531659141344cd1fd0a4f28419497f9722a3daafe3b4186f6b6457e09190a35050565b610867806100886000396000f3fe608060405234801561001057600080fd5b506004361061007d5760003560e01c8063980c308d1161005b578063980c308d146100c4578063a00f89ed146100d7578063e7fb03dd146100e0578063f2fde38b146100f357600080fd5b80631a509bdb14610082578063715018a6146100a15780638da5cb5b146100ab575b600080fd5b61008b60015481565b60405161009891906102dc565b60405180910390f35b6100a9610106565b005b6000546001600160a01b0316604051610098919061030a565b6100a96100d236600461041b565b61011a565b61008b60025481565b6100a96100ee3660046104bd565b6101d4565b6100a9610101366004610504565b610217565b61010e61025a565b6101186000610284565b565b6001546002540361013e57604051632e1e691960e01b815260040160405180910390fd5b600254600081815260036020526040902090815560010161015f8382610610565b506002805460009081526003602052604090200161017d8282610610565b506002805490600061018e836106ea565b91905055507f108f36559fad7af46c996e718c2e49085b2ade286b04a50390a03d847215215b60025483836040516101c89392919061075a565b60405180910390a15050565b6101dc61025a565b600082815260036020819052604090912081018054839260ff1990911690600190849081111561020e5761020e610797565b02179055505050565b61021f61025a565b6001600160a01b03811661024e5760405162461bcd60e51b8152600401610245906107ad565b60405180910390fd5b61025781610284565b50565b6000546001600160a01b031633146101185760405162461bcd60e51b8152600401610245906107f7565b600080546001600160a01b038381166001600160a01b0319831681178455604051919092169283917f8be0079c531659141344cd1fd0a4f28419497f9722a3daafe3b4186f6b6457e09190a35050565b805b82525050565b602081016102ea82846102d4565b92915050565b60006001600160a01b0382166102ea565b6102d6816102f0565b602081016102ea8284610301565b634e487b7160e01b600052604160045260246000fd5b601f19601f830116810181811067ffffffffffffffff8211171561035457610354610318565b6040525050565b600061036660405190565b9050610372828261032e565b919050565b600067ffffffffffffffff82111561039157610391610318565b601f19601f83011660200192915050565b82818337506000910152565b60006103c16103bc84610377565b61035b565b9050828152602081018484840111156103dc576103dc600080fd5b6103e78482856103a2565b509392505050565b600082601f83011261040357610403600080fd5b81356104138482602086016103ae565b949350505050565b6000806040838503121561043157610431600080fd5b823567ffffffffffffffff81111561044b5761044b600080fd5b610457858286016103ef565b925050602083013567ffffffffffffffff81111561047757610477600080fd5b610483858286016103ef565b9150509250929050565b805b811461025757600080fd5b80356102ea8161048d565b6004811061025757600080fd5b80356102ea816104a5565b600080604083850312156104d3576104d3600080fd5b60006104df858561049a565b9250506020610483858286016104b2565b61048f816102f0565b80356102ea816104f0565b60006020828403121561051957610519600080fd5b600061041384846104f9565b634e487b7160e01b600052602260045260246000fd5b60028104600182168061054f57607f821691505b60208210810361056157610561610525565b50919050565b60006102ea6105738381565b90565b61057f83610567565b81546008840282811b60001990911b908116901990911617825550505050565b60006105ac818484610576565b505050565b818110156105cc576105c460008261059f565b6001016105b1565b5050565b601f8211156105ac576000818152602090206020601f850104810160208510156105f75750805b6106096020601f8601048301826105b1565b5050505050565b815167ffffffffffffffff81111561062a5761062a610318565b610634825461053b565b61063f8282856105d0565b6020601f831160018114610673576000841561065b5750858201515b600019600886021c19811660028602178655506106cc565b600085815260208120601f198616915b828110156106a35788850151825560209485019460019092019101610683565b868310156106bf5784890151600019601f89166008021c191682555b6001600288020188555050505b505050505050565b634e487b7160e01b600052601160045260246000fd5b600060001982036106fd576106fd6106d4565b5060010190565b60005b8381101561071f578181015183820152602001610707565b50506000910152565b6000610732825190565b808452602084019350610749818560208601610704565b601f01601f19169290920192915050565b6060810161076882866102d4565b818103602083015261077a8185610728565b9050818103604083015261078e8184610728565b95945050505050565b634e487b7160e01b600052602160045260246000fd5b602080825281016102ea81602681527f4f776e61626c653a206e6577206f776e657220697320746865207a65726f206160208201526564647265737360d01b604082015260600190565b60208082528181019081527f4f776e61626c653a2063616c6c6572206973206e6f7420746865206f776e65726040830152606082016102ea56fea264697066735822122037d0f8071ffe3847debdb559120f81d6c3959232abd8eb4ebe86debafa6316ef64736f6c63430008110033","opcodes":"PUSH1 0x80 PUSH1 0x40 MSTORE PUSH1 0x38 PUSH1 0x1 SSTORE PUSH1 0x0 PUSH1 0x2 SSTORE CALLVALUE DUP1 ISZERO PUSH2 0x1A JUMPI PUSH1 0x0 DUP1 REVERT JUMPDEST POP PUSH2 0x24 CALLER PUSH2 0x29 JUMP JUMPDEST PUSH2 0x79 JUMP JUMPDEST PUSH1 0x0 DUP1 SLOAD PUSH1 0x1 PUSH1 0x1 PUSH1 0xA0 SHL SUB DUP4 DUP2 AND PUSH1 0x1 PUSH1 0x1 PUSH1 0xA0 SHL SUB NOT DUP4 AND DUP2 OR DUP5 SSTORE PUSH1 0x40 MLOAD SWAP2 SWAP1 SWAP3 AND SWAP3 DUP4 SWAP2 PUSH32 0x8BE0079C531659141344CD1FD0A4F28419497F9722A3DAAFE3B4186F6B6457E0 SWAP2 SWAP1 LOG3 POP POP JUMP JUMPDEST PUSH2 0x867 DUP1 PUSH2 0x88 PUSH1 0x0 CODECOPY PUSH1 0x0 RETURN INVALID PUSH1 0x80 PUSH1 0x40 MSTORE CALLVALUE DUP1 ISZERO PUSH2 0x10 JUMPI PUSH1 0x0 DUP1 REVERT JUMPDEST POP PUSH1 0x4 CALLDATASIZE LT PUSH2 0x7D JUMPI PUSH1 0x0 CALLDATALOAD PUSH1 0xE0 SHR DUP1 PUSH4 0x980C308D GT PUSH2 0x5B JUMPI DUP1 PUSH4 0x980C308D EQ PUSH2 0xC4 JUMPI DUP1 PUSH4 0xA00F89ED EQ PUSH2 0xD7 JUMPI DUP1 PUSH4 0xE7FB03DD EQ PUSH2 0xE0 JUMPI DUP1 PUSH4 0xF2FDE38B EQ PUSH2 0xF3 JUMPI PUSH1 0x0 DUP1 REVERT JUMPDEST DUP1 PUSH4 0x1A509BDB EQ PUSH2 0x82 JUMPI DUP1 PUSH4 0x715018A6 EQ PUSH2 0xA1 JUMPI DUP1 PUSH4 0x8DA5CB5B EQ PUSH2 0xAB JUMPI JUMPDEST PUSH1 0x0 DUP1 REVERT JUMPDEST PUSH2 0x8B PUSH1 0x1 SLOAD DUP2 JUMP JUMPDEST PUSH1 0x40 MLOAD PUSH2 0x98 SWAP2 SWAP1 PUSH2 0x2DC JUMP JUMPDEST PUSH1 0x40 MLOAD DUP1 SWAP2 SUB SWAP1 RETURN JUMPDEST PUSH2 0xA9 PUSH2 0x106 JUMP JUMPDEST STOP JUMPDEST PUSH1 0x0 SLOAD PUSH1 0x1 PUSH1 0x1 PUSH1 0xA0 SHL SUB AND PUSH1 0x40 MLOAD PUSH2 0x98 SWAP2 SWAP1 PUSH2 0x30A JUMP JUMPDEST PUSH2 0xA9 PUSH2 0xD2 CALLDATASIZE PUSH1 0x4 PUSH2 0x41B JUMP JUMPDEST PUSH2 0x11A JUMP JUMPDEST PUSH2 0x8B PUSH1 0x2 SLOAD DUP2 JUMP JUMPDEST PUSH2 0xA9 PUSH2 0xEE CALLDATASIZE PUSH1 0x4 PUSH2 0x4BD JUMP JUMPDEST PUSH2 0x1D4 JUMP JUMPDEST PUSH2 0xA9 PUSH2 0x101 CALLDATASIZE PUSH1 0x4 PUSH2 0x504 JUMP JUMPDEST PUSH2 0x217 JUMP JUMPDEST PUSH2 0x10E PUSH2 0x25A JUMP JUMPDEST PUSH2 0x118 PUSH1 0x0 PUSH2 0x284 JUMP JUMPDEST JUMP JUMPDEST PUSH1 0x1 SLOAD PUSH1 0x2 SLOAD SUB PUSH2 0x13E JUMPI PUSH1 0x40 MLOAD PUSH4 0x2E1E6919 PUSH1 0xE0 SHL DUP2 MSTORE PUSH1 0x4 ADD PUSH1 0x40 MLOAD DUP1 SWAP2 SUB SWAP1 REVERT JUMPDEST PUSH1 0x2 SLOAD PUSH1 0x0 DUP2 DUP2 MSTORE PUSH1 0x3 PUSH1 0x20 MSTORE PUSH1 0x40 SWAP1 KECCAK256 SWAP1 DUP2 SSTORE PUSH1 0x1 ADD PUSH2 0x15F DUP4 DUP3 PUSH2 0x610 JUMP JUMPDEST POP PUSH1 0x2 DUP1 SLOAD PUSH1 0x0 SWAP1 DUP2 MSTORE PUSH1 0x3 PUSH1 0x20 MSTORE PUSH1 0x40 SWAP1 KECCAK256 ADD PUSH2 0x17D DUP3 DUP3 PUSH2 0x610 JUMP JUMPDEST POP PUSH1 0x2 DUP1 SLOAD SWAP1 PUSH1 0x0 PUSH2 0x18E DUP4 PUSH2 0x6EA JUMP JUMPDEST SWAP2 SWAP1 POP SSTORE POP PUSH32 0x108F36559FAD7AF46C996E718C2E49085B2ADE286B04A50390A03D847215215B PUSH1 0x2 SLOAD DUP4 DUP4 PUSH1 0x40 MLOAD PUSH2 0x1C8 SWAP4 SWAP3 SWAP2 SWAP1 PUSH2 0x75A JUMP JUMPDEST PUSH1 0x40 MLOAD DUP1 SWAP2 SUB SWAP1 LOG1 POP POP JUMP JUMPDEST PUSH2 0x1DC PUSH2 0x25A JUMP JUMPDEST PUSH1 0x0 DUP3 DUP2 MSTORE PUSH1 0x3 PUSH1 0x20 DUP2 SWAP1 MSTORE PUSH1 0x40 SWAP1 SWAP2 KECCAK256 DUP2 ADD DUP1 SLOAD DUP4 SWAP3 PUSH1 0xFF NOT SWAP1 SWAP2 AND SWAP1 PUSH1 0x1 SWAP1 DUP5 SWAP1 DUP2 GT ISZERO PUSH2 0x20E JUMPI PUSH2 0x20E PUSH2 0x797 JUMP JUMPDEST MUL OR SWAP1 SSTORE POP POP POP JUMP JUMPDEST PUSH2 0x21F PUSH2 0x25A JUMP JUMPDEST PUSH1 0x1 PUSH1 0x1 PUSH1 0xA0 SHL SUB DUP2 AND PUSH2 0x24E JUMPI PUSH1 0x40 MLOAD PUSH3 0x461BCD PUSH1 0xE5 SHL DUP2 MSTORE PUSH1 0x4 ADD PUSH2 0x245 SWAP1 PUSH2 0x7AD JUMP JUMPDEST PUSH1 0x40 MLOAD DUP1 SWAP2 SUB SWAP1 REVERT JUMPDEST PUSH2 0x257 DUP2 PUSH2 0x284 JUMP JUMPDEST POP JUMP JUMPDEST PUSH1 0x0 SLOAD PUSH1 0x1 PUSH1 0x1 PUSH1 0xA0 SHL SUB AND CALLER EQ PUSH2 0x118 JUMPI PUSH1 0x40 MLOAD PUSH3 0x461BCD PUSH1 0xE5 SHL DUP2 MSTORE PUSH1 0x4 ADD PUSH2 0x245 SWAP1 PUSH2 0x7F7 JUMP JUMPDEST PUSH1 0x0 DUP1 SLOAD PUSH1 0x1 PUSH1 0x1 PUSH1 0xA0 SHL SUB DUP4 DUP2 AND PUSH1 0x1 PUSH1 0x1 PUSH1 0xA0 SHL SUB NOT DUP4 AND DUP2 OR DUP5 SSTORE PUSH1 0x40 MLOAD SWAP2 SWAP1 SWAP3 AND SWAP3 DUP4 SWAP2 PUSH32 0x8BE0079C531659141344CD1FD0A4F28419497F9722A3DAAFE3B4186F6B6457E0 SWAP2 SWAP1 LOG3 POP POP JUMP JUMPDEST DUP1 JUMPDEST DUP3 MSTORE POP POP JUMP JUMPDEST PUSH1 0x20 DUP2 ADD PUSH2 0x2EA DUP3 DUP5 PUSH2 0x2D4 JUMP JUMPDEST SWAP3 SWAP2 POP POP JUMP JUMPDEST PUSH1 0x0 PUSH1 0x1 PUSH1 0x1 PUSH1 0xA0 SHL SUB DUP3 AND PUSH2 0x2EA JUMP JUMPDEST PUSH2 0x2D6 DUP2 PUSH2 0x2F0 JUMP JUMPDEST PUSH1 0x20 DUP2 ADD PUSH2 0x2EA DUP3 DUP5 PUSH2 0x301 JUMP JUMPDEST PUSH4 0x4E487B71 PUSH1 0xE0 SHL PUSH1 0x0 MSTORE PUSH1 0x41 PUSH1 0x4 MSTORE PUSH1 0x24 PUSH1 0x0 REVERT JUMPDEST PUSH1 0x1F NOT PUSH1 0x1F DUP4 ADD AND DUP2 ADD DUP2 DUP2 LT PUSH8 0xFFFFFFFFFFFFFFFF DUP3 GT OR ISZERO PUSH2 0x354 JUMPI PUSH2 0x354 PUSH2 0x318 JUMP JUMPDEST PUSH1 0x40 MSTORE POP POP JUMP JUMPDEST PUSH1 0x0 PUSH2 0x366 PUSH1 0x40 MLOAD SWAP1 JUMP JUMPDEST SWAP1 POP PUSH2 0x372 DUP3 DUP3 PUSH2 0x32E JUMP JUMPDEST SWAP2 SWAP1 POP JUMP JUMPDEST PUSH1 0x0 PUSH8 0xFFFFFFFFFFFFFFFF DUP3 GT ISZERO PUSH2 0x391 JUMPI PUSH2 0x391 PUSH2 0x318 JUMP JUMPDEST PUSH1 0x1F NOT PUSH1 0x1F DUP4 ADD AND PUSH1 0x20 ADD SWAP3 SWAP2 POP POP JUMP JUMPDEST DUP3 DUP2 DUP4 CALLDATACOPY POP PUSH1 0x0 SWAP2 ADD MSTORE JUMP JUMPDEST PUSH1 0x0 PUSH2 0x3C1 PUSH2 0x3BC DUP5 PUSH2 0x377 JUMP JUMPDEST PUSH2 0x35B JUMP JUMPDEST SWAP1 POP DUP3 DUP2 MSTORE PUSH1 0x20 DUP2 ADD DUP5 DUP5 DUP5 ADD GT ISZERO PUSH2 0x3DC JUMPI PUSH2 0x3DC PUSH1 0x0 DUP1 REVERT JUMPDEST PUSH2 0x3E7 DUP5 DUP3 DUP6 PUSH2 0x3A2 JUMP JUMPDEST POP SWAP4 SWAP3 POP POP POP JUMP JUMPDEST PUSH1 0x0 DUP3 PUSH1 0x1F DUP4 ADD SLT PUSH2 0x403 JUMPI PUSH2 0x403 PUSH1 0x0 DUP1 REVERT JUMPDEST DUP2 CALLDATALOAD PUSH2 0x413 DUP5 DUP3 PUSH1 0x20 DUP7 ADD PUSH2 0x3AE JUMP JUMPDEST SWAP5 SWAP4 POP POP POP POP JUMP JUMPDEST PUSH1 0x0 DUP1 PUSH1 0x40 DUP4 DUP6 SUB SLT ISZERO PUSH2 0x431 JUMPI PUSH2 0x431 PUSH1 0x0 DUP1 REVERT JUMPDEST DUP3 CALLDATALOAD PUSH8 0xFFFFFFFFFFFFFFFF DUP2 GT ISZERO PUSH2 0x44B JUMPI PUSH2 0x44B PUSH1 0x0 DUP1 REVERT JUMPDEST PUSH2 0x457 DUP6 DUP3 DUP7 ADD PUSH2 0x3EF JUMP JUMPDEST SWAP3 POP POP PUSH1 0x20 DUP4 ADD CALLDATALOAD PUSH8 0xFFFFFFFFFFFFFFFF DUP2 GT ISZERO PUSH2 0x477 JUMPI PUSH2 0x477 PUSH1 0x0 DUP1 REVERT JUMPDEST PUSH2 0x483 DUP6 DUP3 DUP7 ADD PUSH2 0x3EF JUMP JUMPDEST SWAP2 POP POP SWAP3 POP SWAP3 SWAP1 POP JUMP JUMPDEST DUP1 JUMPDEST DUP2 EQ PUSH2 0x257 JUMPI PUSH1 0x0 DUP1 REVERT JUMPDEST DUP1 CALLDATALOAD PUSH2 0x2EA DUP2 PUSH2 0x48D JUMP JUMPDEST PUSH1 0x4 DUP2 LT PUSH2 0x257 JUMPI PUSH1 0x0 DUP1 REVERT JUMPDEST DUP1 CALLDATALOAD PUSH2 0x2EA DUP2 PUSH2 0x4A5 JUMP JUMPDEST PUSH1 0x0 DUP1 PUSH1 0x40 DUP4 DUP6 SUB SLT ISZERO PUSH2 0x4D3 JUMPI PUSH2 0x4D3 PUSH1 0x0 DUP1 REVERT JUMPDEST PUSH1 0x0 PUSH2 0x4DF DUP6 DUP6 PUSH2 0x49A JUMP JUMPDEST SWAP3 POP POP PUSH1 0x20 PUSH2 0x483 DUP6 DUP3 DUP7 ADD PUSH2 0x4B2 JUMP JUMPDEST PUSH2 0x48F DUP2 PUSH2 0x2F0 JUMP JUMPDEST DUP1 CALLDATALOAD PUSH2 0x2EA DUP2 PUSH2 0x4F0 JUMP JUMPDEST PUSH1 0x0 PUSH1 0x20 DUP3 DUP5 SUB SLT ISZERO PUSH2 0x519 JUMPI PUSH2 0x519 PUSH1 0x0 DUP1 REVERT JUMPDEST PUSH1 0x0 PUSH2 0x413 DUP5 DUP5 PUSH2 0x4F9 JUMP JUMPDEST PUSH4 0x4E487B71 PUSH1 0xE0 SHL PUSH1 0x0 MSTORE PUSH1 0x22 PUSH1 0x4 MSTORE PUSH1 0x24 PUSH1 0x0 REVERT JUMPDEST PUSH1 0x2 DUP2 DIV PUSH1 0x1 DUP3 AND DUP1 PUSH2 0x54F JUMPI PUSH1 0x7F DUP3 AND SWAP2 POP JUMPDEST PUSH1 0x20 DUP3 LT DUP2 SUB PUSH2 0x561 JUMPI PUSH2 0x561 PUSH2 0x525 JUMP JUMPDEST POP SWAP2 SWAP1 POP JUMP JUMPDEST PUSH1 0x0 PUSH2 0x2EA PUSH2 0x573 DUP4 DUP2 JUMP JUMPDEST SWAP1 JUMP JUMPDEST PUSH2 0x57F DUP4 PUSH2 0x567 JUMP JUMPDEST DUP2 SLOAD PUSH1 0x8 DUP5 MUL DUP3 DUP2 SHL PUSH1 0x0 NOT SWAP1 SWAP2 SHL SWAP1 DUP2 AND SWAP1 NOT SWAP1 SWAP2 AND OR DUP3 SSTORE POP POP POP POP JUMP JUMPDEST PUSH1 0x0 PUSH2 0x5AC DUP2 DUP5 DUP5 PUSH2 0x576 JUMP JUMPDEST POP POP POP JUMP JUMPDEST DUP2 DUP2 LT ISZERO PUSH2 0x5CC JUMPI PUSH2 0x5C4 PUSH1 0x0 DUP3 PUSH2 0x59F JUMP JUMPDEST PUSH1 0x1 ADD PUSH2 0x5B1 JUMP JUMPDEST POP POP JUMP JUMPDEST PUSH1 0x1F DUP3 GT ISZERO PUSH2 0x5AC JUMPI PUSH1 0x0 DUP2 DUP2 MSTORE PUSH1 0x20 SWAP1 KECCAK256 PUSH1 0x20 PUSH1 0x1F DUP6 ADD DIV DUP2 ADD PUSH1 0x20 DUP6 LT ISZERO PUSH2 0x5F7 JUMPI POP DUP1 JUMPDEST PUSH2 0x609 PUSH1 0x20 PUSH1 0x1F DUP7 ADD DIV DUP4 ADD DUP3 PUSH2 0x5B1 JUMP JUMPDEST POP POP POP POP POP JUMP JUMPDEST DUP2 MLOAD PUSH8 0xFFFFFFFFFFFFFFFF DUP2 GT ISZERO PUSH2 0x62A JUMPI PUSH2 0x62A PUSH2 0x318 JUMP JUMPDEST PUSH2 0x634 DUP3 SLOAD PUSH2 0x53B JUMP JUMPDEST PUSH2 0x63F DUP3 DUP3 DUP6 PUSH2 0x5D0 JUMP JUMPDEST PUSH1 0x20 PUSH1 0x1F DUP4 GT PUSH1 0x1 DUP2 EQ PUSH2 0x673 JUMPI PUSH1 0x0 DUP5 ISZERO PUSH2 0x65B JUMPI POP DUP6 DUP3 ADD MLOAD JUMPDEST PUSH1 0x0 NOT PUSH1 0x8 DUP7 MUL SHR NOT DUP2 AND PUSH1 0x2 DUP7 MUL OR DUP7 SSTORE POP PUSH2 0x6CC JUMP JUMPDEST PUSH1 0x0 DUP6 DUP2 MSTORE PUSH1 0x20 DUP2 KECCAK256 PUSH1 0x1F NOT DUP7 AND SWAP2 JUMPDEST DUP3 DUP2 LT ISZERO PUSH2 0x6A3 JUMPI DUP9 DUP6 ADD MLOAD DUP3 SSTORE PUSH1 0x20 SWAP5 DUP6 ADD SWAP5 PUSH1 0x1 SWAP1 SWAP3 ADD SWAP2 ADD PUSH2 0x683 JUMP JUMPDEST DUP7 DUP4 LT ISZERO PUSH2 0x6BF JUMPI DUP5 DUP10 ADD MLOAD PUSH1 0x0 NOT PUSH1 0x1F DUP10 AND PUSH1 0x8 MUL SHR NOT AND DUP3 SSTORE JUMPDEST PUSH1 0x1 PUSH1 0x2 DUP9 MUL ADD DUP9 SSTORE POP POP POP JUMPDEST POP POP POP POP POP POP JUMP JUMPDEST PUSH4 0x4E487B71 PUSH1 0xE0 SHL PUSH1 0x0 MSTORE PUSH1 0x11 PUSH1 0x4 MSTORE PUSH1 0x24 PUSH1 0x0 REVERT JUMPDEST PUSH1 0x0 PUSH1 0x0 NOT DUP3 SUB PUSH2 0x6FD JUMPI PUSH2 0x6FD PUSH2 0x6D4 JUMP JUMPDEST POP PUSH1 0x1 ADD SWAP1 JUMP JUMPDEST PUSH1 0x0 JUMPDEST DUP4 DUP2 LT ISZERO PUSH2 0x71F JUMPI DUP2 DUP2 ADD MLOAD DUP4 DUP3 ADD MSTORE PUSH1 0x20 ADD PUSH2 0x707 JUMP JUMPDEST POP POP PUSH1 0x0 SWAP2 ADD MSTORE JUMP JUMPDEST PUSH1 0x0 PUSH2 0x732 DUP3 MLOAD SWAP1 JUMP JUMPDEST DUP1 DUP5 MSTORE PUSH1 0x20 DUP5 ADD SWAP4 POP PUSH2 0x749 DUP2 DUP6 PUSH1 0x20 DUP7 ADD PUSH2 0x704 JUMP JUMPDEST PUSH1 0x1F ADD PUSH1 0x1F NOT AND SWAP3 SWAP1 SWAP3 ADD SWAP3 SWAP2 POP POP JUMP JUMPDEST PUSH1 0x60 DUP2 ADD PUSH2 0x768 DUP3 DUP7 PUSH2 0x2D4 JUMP JUMPDEST DUP2 DUP2 SUB PUSH1 0x20 DUP4 ADD MSTORE PUSH2 0x77A DUP2 DUP6 PUSH2 0x728 JUMP JUMPDEST SWAP1 POP DUP2 DUP2 SUB PUSH1 0x40 DUP4 ADD MSTORE PUSH2 0x78E DUP2 DUP5 PUSH2 0x728 JUMP JUMPDEST SWAP6 SWAP5 POP POP POP POP POP JUMP JUMPDEST PUSH4 0x4E487B71 PUSH1 0xE0 SHL PUSH1 0x0 MSTORE PUSH1 0x21 PUSH1 0x4 MSTORE PUSH1 0x24 PUSH1 0x0 REVERT JUMPDEST PUSH1 0x20 DUP1 DUP3 MSTORE DUP2 ADD PUSH2 0x2EA DUP2 PUSH1 0x26 DUP2 MSTORE PUSH32 0x4F776E61626C653A206E6577206F776E657220697320746865207A65726F2061 PUSH1 0x20 DUP3 ADD MSTORE PUSH6 0x646472657373 PUSH1 0xD0 SHL PUSH1 0x40 DUP3 ADD MSTORE PUSH1 0x60 ADD SWAP1 JUMP JUMPDEST PUSH1 0x20 DUP1 DUP3 MSTORE DUP2 DUP2 ADD SWAP1 DUP2 MSTORE PUSH32 0x4F776E61626C653A2063616C6C6572206973206E6F7420746865206F776E6572 PUSH1 0x40 DUP4 ADD MSTORE PUSH1 0x60 DUP3 ADD PUSH2 0x2EA JUMP INVALID LOG2 PUSH5 0x6970667358 0x22 SLT KECCAK256 CALLDATACOPY 0xD0 0xF8 SMOD 0x1F INVALID CODESIZE SELFBALANCE 0xDE 0xBD 0xB5 MSIZE SLT 0xF DUP2 0xD6 0xC3 SWAP6 SWAP3 ORIGIN 0xAB 0xD8 0xEB 0x4E 0xBE DUP7 0xDE 0xBA STATICCALL PUSH4 0x16EF6473 PUSH16 0x6C634300081100330000000000000000 "},"gasEstimates":{"creation":{"codeDepositCost":"430200","executionCost":"53421","totalCost":"483621"},"external":{"addProject(string,string)":"infinite","addVotes(uint256,uint8)":"infinite","currentProjects()":"2383","maxNumProjects()":"2362","owner()":"infinite","renounceOwnership()":"infinite","transferOwnership(address)":"infinite"}},"methodIdentifiers":{"addProject(string,string)":"980c308d","addVotes(uint256,uint8)":"e7fb03dd","currentProjects()":"a00f89ed","maxNumProjects()":"1a509bdb","owner()":"8da5cb5b","renounceOwnership()":"715018a6","transferOwnership(address)":"f2fde38b"}},"storageLayout":{"storage":[{"astId":7,"contract":"contracts/project.sol:project","label":"_owner","offset":0,"slot":"0","type":"t_address"},{"astId":149,"contract":"contracts/project.sol:project","label":"maxNumProjects","offset":0,"slot":"1","type":"t_uint256"},{"astId":152,"contract":"contracts/project.sol:project","label":"currentProjects","offset":0,"slot":"2","type":"t_uint256"},{"astId":167,"contract":"contracts/project.sol:project","label":"data","offset":0,"slot":"3","type":"t_mapping(t_uint256,t_struct(projectDetails)162_storage)"}],"types":{"t_address":{"encoding":"inplace","label":"address","numberOfBytes":"20"},"t_enum(Feedback)146":{"encoding":"inplace","label":"enum project.Feedback","numberOfBytes":"1"},"t_mapping(t_uint256,t_struct(projectDetails)162_storage)":{"encoding":"mapping","key":"t_uint256","label":"mapping(uint256 => struct project.projectDetails)","numberOfBytes":"32","value":"t_struct(projectDetails)162_storage"},"t_string_storage":{"encoding":"bytes","label":"string","numberOfBytes":"32"},"t_struct(projectDetails)162_storage":{"encoding":"inplace","label":"struct project.projectDetails","members":[{"astId":154,"contract":"contracts/project.sol:project","label":"projectId","offset":0,"slot":"0","type":"t_uint256"},{"astId":156,"contract":"contracts/project.sol:project","label":"problemStatement","offset":0,"slot":"1","type":"t_string_storage"},{"astId":158,"contract":"contracts/project.sol:project","label":"studentName","offset":0,"slot":"2","type":"t_string_storage"},{"astId":161,"contract":"contracts/project.sol:project","label":"fb","offset":0,"slot":"3","type":"t_enum(Feedback)146"}],"numberOfBytes":"128"},"t_uint256":{"encoding":"inplace","label":"uint256","numberOfBytes":"32"}}},"userdoc":{"kind":"user","methods":{},"version":1}}}}