{
  "address": "0xCf7Ed3AccA5a467e9e704C703E8D87F634fB0Fc9",
  "abi": [
    {
      "inputs": [
        {
          "internalType": "contract ERC20Votes",
          "name": "_token",
          "type": "address"
        },
        {
          "internalType": "contract TimelockController",
          "name": "_timelock",
          "type": "address"
        },
        {
          "internalType": "uint256",
          "name": "_quorumPercentage",
          "type": "uint256"
        },
        {
          "internalType": "uint256",
          "name": "_votingPeriod",
          "type": "uint256"
        },
        {
          "internalType": "uint256",
          "name": "_votingDelay",
          "type": "uint256"
        }
      ],
      "stateMutability": "nonpayable",
      "type": "constructor"
    },
    {
      "inputs": [],
      "name": "Empty",
      "type": "error"
    },
    {
      "inputs": [],
      "name": "InvalidShortString",
      "type": "error"
    },
    {
      "inputs": [
        {
          "internalType": "string",
          "name": "str",
          "type": "string"
        }
      ],
      "name": "StringTooLong",
      "type": "error"
    },
    {
      "anonymous": false,
      "inputs": [],
      "name": "EIP712DomainChanged",
      "type": "event"
    },
    {
      "anonymous": false,
      "inputs": [
        {
          "indexed": false,
          "internalType": "uint256",
          "name": "proposalId",
          "type": "uint256"
        }
      ],
      "name": "ProposalCanceled",
      "type": "event"
    },
    {
      "anonymous": false,
      "inputs": [
        {
          "indexed": false,
          "internalType": "uint256",
          "name": "proposalId",
          "type": "uint256"
        },
        {
          "indexed": false,
          "internalType": "address",
          "name": "proposer",
          "type": "address"
        },
        {
          "indexed": false,
          "internalType": "address[]",
          "name": "targets",
          "type": "address[]"
        },
        {
          "indexed": false,
          "internalType": "uint256[]",
          "name": "values",
          "type": "uint256[]"
        },
        {
          "indexed": false,
          "internalType": "string[]",
          "name": "signatures",
          "type": "string[]"
        },
        {
          "indexed": false,
          "internalType": "bytes[]",
          "name": "calldatas",
          "type": "bytes[]"
        },
        {
          "indexed": false,
          "internalType": "uint256",
          "name": "voteStart",
          "type": "uint256"
        },
        {
          "indexed": false,
          "internalType": "uint256",
          "name": "voteEnd",
          "type": "uint256"
        },
        {
          "indexed": false,
          "internalType": "string",
          "name": "description",
          "type": "string"
        }
      ],
      "name": "ProposalCreated",
      "type": "event"
    },
    {
      "anonymous": false,
      "inputs": [
        {
          "indexed": false,
          "internalType": "uint256",
          "name": "proposalId",
          "type": "uint256"
        }
      ],
      "name": "ProposalExecuted",
      "type": "event"
    },
    {
      "anonymous": false,
      "inputs": [
        {
          "indexed": false,
          "internalType": "uint256",
          "name": "proposalId",
          "type": "uint256"
        },
        {
          "indexed": false,
          "internalType": "uint256",
          "name": "eta",
          "type": "uint256"
        }
      ],
      "name": "ProposalQueued",
      "type": "event"
    },
    {
      "anonymous": false,
      "inputs": [
        {
          "indexed": false,
          "internalType": "uint256",
          "name": "oldQuorumNumerator",
          "type": "uint256"
        },
        {
          "indexed": false,
          "internalType": "uint256",
          "name": "newQuorumNumerator",
          "type": "uint256"
        }
      ],
      "name": "QuorumNumeratorUpdated",
      "type": "event"
    },
    {
      "anonymous": false,
      "inputs": [
        {
          "indexed": false,
          "internalType": "address",
          "name": "oldTimelock",
          "type": "address"
        },
        {
          "indexed": false,
          "internalType": "address",
          "name": "newTimelock",
          "type": "address"
        }
      ],
      "name": "TimelockChange",
      "type": "event"
    },
    {
      "anonymous": false,
      "inputs": [
        {
          "indexed": true,
          "internalType": "address",
          "name": "voter",
          "type": "address"
        },
        {
          "indexed": false,
          "internalType": "uint256",
          "name": "proposalId",
          "type": "uint256"
        },
        {
          "indexed": false,
          "internalType": "uint8",
          "name": "support",
          "type": "uint8"
        },
        {
          "indexed": false,
          "internalType": "uint256",
          "name": "weight",
          "type": "uint256"
        },
        {
          "indexed": false,
          "internalType": "string",
          "name": "reason",
          "type": "string"
        }
      ],
      "name": "VoteCast",
      "type": "event"
    },
    {
      "anonymous": false,
      "inputs": [
        {
          "indexed": true,
          "internalType": "address",
          "name": "voter",
          "type": "address"
        },
        {
          "indexed": false,
          "internalType": "uint256",
          "name": "proposalId",
          "type": "uint256"
        },
        {
          "indexed": false,
          "internalType": "uint8",
          "name": "support",
          "type": "uint8"
        },
        {
          "indexed": false,
          "internalType": "uint256",
          "name": "weight",
          "type": "uint256"
        },
        {
          "indexed": false,
          "internalType": "string",
          "name": "reason",
          "type": "string"
        },
        {
          "indexed": false,
          "internalType": "bytes",
          "name": "params",
          "type": "bytes"
        }
      ],
      "name": "VoteCastWithParams",
      "type": "event"
    },
    {
      "inputs": [],
      "name": "BALLOT_TYPEHASH",
      "outputs": [
        {
          "internalType": "bytes32",
          "name": "",
          "type": "bytes32"
        }
      ],
      "stateMutability": "view",
      "type": "function"
    },
    {
      "inputs": [],
      "name": "CLOCK_MODE",
      "outputs": [
        {
          "internalType": "string",
          "name": "",
          "type": "string"
        }
      ],
      "stateMutability": "view",
      "type": "function"
    },
    {
      "inputs": [],
      "name": "COUNTING_MODE",
      "outputs": [
        {
          "internalType": "string",
          "name": "",
          "type": "string"
        }
      ],
      "stateMutability": "pure",
      "type": "function"
    },
    {
      "inputs": [],
      "name": "EXTENDED_BALLOT_TYPEHASH",
      "outputs": [
        {
          "internalType": "bytes32",
          "name": "",
          "type": "bytes32"
        }
      ],
      "stateMutability": "view",
      "type": "function"
    },
    {
      "inputs": [
        {
          "internalType": "address[]",
          "name": "targets",
          "type": "address[]"
        },
        {
          "internalType": "uint256[]",
          "name": "values",
          "type": "uint256[]"
        },
        {
          "internalType": "bytes[]",
          "name": "calldatas",
          "type": "bytes[]"
        },
        {
          "internalType": "bytes32",
          "name": "descriptionHash",
          "type": "bytes32"
        }
      ],
      "name": "cancel",
      "outputs": [
        {
          "internalType": "uint256",
          "name": "",
          "type": "uint256"
        }
      ],
      "stateMutability": "nonpayable",
      "type": "function"
    },
    {
      "inputs": [
        {
          "internalType": "uint256",
          "name": "proposalId",
          "type": "uint256"
        },
        {
          "internalType": "uint8",
          "name": "support",
          "type": "uint8"
        }
      ],
      "name": "castVote",
      "outputs": [
        {
          "internalType": "uint256",
          "name": "",
          "type": "uint256"
        }
      ],
      "stateMutability": "nonpayable",
      "type": "function"
    },
    {
      "inputs": [
        {
          "internalType": "uint256",
          "name": "proposalId",
          "type": "uint256"
        },
        {
          "internalType": "uint8",
          "name": "support",
          "type": "uint8"
        },
        {
          "internalType": "uint8",
          "name": "v",
          "type": "uint8"
        },
        {
          "internalType": "bytes32",
          "name": "r",
          "type": "bytes32"
        },
        {
          "internalType": "bytes32",
          "name": "s",
          "type": "bytes32"
        }
      ],
      "name": "castVoteBySig",
      "outputs": [
        {
          "internalType": "uint256",
          "name": "",
          "type": "uint256"
        }
      ],
      "stateMutability": "nonpayable",
      "type": "function"
    },
    {
      "inputs": [
        {
          "internalType": "uint256",
          "name": "proposalId",
          "type": "uint256"
        },
        {
          "internalType": "uint8",
          "name": "support",
          "type": "uint8"
        },
        {
          "internalType": "string",
          "name": "reason",
          "type": "string"
        }
      ],
      "name": "castVoteWithReason",
      "outputs": [
        {
          "internalType": "uint256",
          "name": "",
          "type": "uint256"
        }
      ],
      "stateMutability": "nonpayable",
      "type": "function"
    },
    {
      "inputs": [
        {
          "internalType": "uint256",
          "name": "proposalId",
          "type": "uint256"
        },
        {
          "internalType": "uint8",
          "name": "support",
          "type": "uint8"
        },
        {
          "internalType": "string",
          "name": "reason",
          "type": "string"
        },
        {
          "internalType": "bytes",
          "name": "params",
          "type": "bytes"
        }
      ],
      "name": "castVoteWithReasonAndParams",
      "outputs": [
        {
          "internalType": "uint256",
          "name": "",
          "type": "uint256"
        }
      ],
      "stateMutability": "nonpayable",
      "type": "function"
    },
    {
      "inputs": [
        {
          "internalType": "uint256",
          "name": "proposalId",
          "type": "uint256"
        },
        {
          "internalType": "uint8",
          "name": "support",
          "type": "uint8"
        },
        {
          "internalType": "string",
          "name": "reason",
          "type": "string"
        },
        {
          "internalType": "bytes",
          "name": "params",
          "type": "bytes"
        },
        {
          "internalType": "uint8",
          "name": "v",
          "type": "uint8"
        },
        {
          "internalType": "bytes32",
          "name": "r",
          "type": "bytes32"
        },
        {
          "internalType": "bytes32",
          "name": "s",
          "type": "bytes32"
        }
      ],
      "name": "castVoteWithReasonAndParamsBySig",
      "outputs": [
        {
          "internalType": "uint256",
          "name": "",
          "type": "uint256"
        }
      ],
      "stateMutability": "nonpayable",
      "type": "function"
    },
    {
      "inputs": [],
      "name": "clock",
      "outputs": [
        {
          "internalType": "uint48",
          "name": "",
          "type": "uint48"
        }
      ],
      "stateMutability": "view",
      "type": "function"
    },
    {
      "inputs": [],
      "name": "eip712Domain",
      "outputs": [
        {
          "internalType": "bytes1",
          "name": "fields",
          "type": "bytes1"
        },
        {
          "internalType": "string",
          "name": "name",
          "type": "string"
        },
        {
          "internalType": "string",
          "name": "version",
          "type": "string"
        },
        {
          "internalType": "uint256",
          "name": "chainId",
          "type": "uint256"
        },
        {
          "internalType": "address",
          "name": "verifyingContract",
          "type": "address"
        },
        {
          "internalType": "bytes32",
          "name": "salt",
          "type": "bytes32"
        },
        {
          "internalType": "uint256[]",
          "name": "extensions",
          "type": "uint256[]"
        }
      ],
      "stateMutability": "view",
      "type": "function"
    },
    {
      "inputs": [
        {
          "internalType": "address[]",
          "name": "targets",
          "type": "address[]"
        },
        {
          "internalType": "uint256[]",
          "name": "values",
          "type": "uint256[]"
        },
        {
          "internalType": "bytes[]",
          "name": "calldatas",
          "type": "bytes[]"
        },
        {
          "internalType": "bytes32",
          "name": "descriptionHash",
          "type": "bytes32"
        }
      ],
      "name": "execute",
      "outputs": [
        {
          "internalType": "uint256",
          "name": "",
          "type": "uint256"
        }
      ],
      "stateMutability": "payable",
      "type": "function"
    },
    {
      "inputs": [
        {
          "internalType": "address",
          "name": "account",
          "type": "address"
        },
        {
          "internalType": "uint256",
          "name": "blockNumber",
          "type": "uint256"
        }
      ],
      "name": "getVotes",
      "outputs": [
        {
          "internalType": "uint256",
          "name": "",
          "type": "uint256"
        }
      ],
      "stateMutability": "view",
      "type": "function"
    },
    {
      "inputs": [
        {
          "internalType": "address",
          "name": "account",
          "type": "address"
        },
        {
          "internalType": "uint256",
          "name": "timepoint",
          "type": "uint256"
        },
        {
          "internalType": "bytes",
          "name": "params",
          "type": "bytes"
        }
      ],
      "name": "getVotesWithParams",
      "outputs": [
        {
          "internalType": "uint256",
          "name": "",
          "type": "uint256"
        }
      ],
      "stateMutability": "view",
      "type": "function"
    },
    {
      "inputs": [
        {
          "internalType": "uint256",
          "name": "proposalId",
          "type": "uint256"
        },
        {
          "internalType": "address",
          "name": "account",
          "type": "address"
        }
      ],
      "name": "hasVoted",
      "outputs": [
        {
          "internalType": "bool",
          "name": "",
          "type": "bool"
        }
      ],
      "stateMutability": "view",
      "type": "function"
    },
    {
      "inputs": [
        {
          "internalType": "address[]",
          "name": "targets",
          "type": "address[]"
        },
        {
          "internalType": "uint256[]",
          "name": "values",
          "type": "uint256[]"
        },
        {
          "internalType": "bytes[]",
          "name": "calldatas",
          "type": "bytes[]"
        },
        {
          "internalType": "bytes32",
          "name": "descriptionHash",
          "type": "bytes32"
        }
      ],
      "name": "hashProposal",
      "outputs": [
        {
          "internalType": "uint256",
          "name": "",
          "type": "uint256"
        }
      ],
      "stateMutability": "pure",
      "type": "function"
    },
    {
      "inputs": [],
      "name": "name",
      "outputs": [
        {
          "internalType": "string",
          "name": "",
          "type": "string"
        }
      ],
      "stateMutability": "view",
      "type": "function"
    },
    {
      "inputs": [
        {
          "internalType": "address",
          "name": "",
          "type": "address"
        },
        {
          "internalType": "address",
          "name": "",
          "type": "address"
        },
        {
          "internalType": "uint256[]",
          "name": "",
          "type": "uint256[]"
        },
        {
          "internalType": "uint256[]",
          "name": "",
          "type": "uint256[]"
        },
        {
          "internalType": "bytes",
          "name": "",
          "type": "bytes"
        }
      ],
      "name": "onERC1155BatchReceived",
      "outputs": [
        {
          "internalType": "bytes4",
          "name": "",
          "type": "bytes4"
        }
      ],
      "stateMutability": "nonpayable",
      "type": "function"
    },
    {
      "inputs": [
        {
          "internalType": "address",
          "name": "",
          "type": "address"
        },
        {
          "internalType": "address",
          "name": "",
          "type": "address"
        },
        {
          "internalType": "uint256",
          "name": "",
          "type": "uint256"
        },
        {
          "internalType": "uint256",
          "name": "",
          "type": "uint256"
        },
        {
          "internalType": "bytes",
          "name": "",
          "type": "bytes"
        }
      ],
      "name": "onERC1155Received",
      "outputs": [
        {
          "internalType": "bytes4",
          "name": "",
          "type": "bytes4"
        }
      ],
      "stateMutability": "nonpayable",
      "type": "function"
    },
    {
      "inputs": [
        {
          "internalType": "address",
          "name": "",
          "type": "address"
        },
        {
          "internalType": "address",
          "name": "",
          "type": "address"
        },
        {
          "internalType": "uint256",
          "name": "",
          "type": "uint256"
        },
        {
          "internalType": "bytes",
          "name": "",
          "type": "bytes"
        }
      ],
      "name": "onERC721Received",
      "outputs": [
        {
          "internalType": "bytes4",
          "name": "",
          "type": "bytes4"
        }
      ],
      "stateMutability": "nonpayable",
      "type": "function"
    },
    {
      "inputs": [
        {
          "internalType": "uint256",
          "name": "proposalId",
          "type": "uint256"
        }
      ],
      "name": "proposalDeadline",
      "outputs": [
        {
          "internalType": "uint256",
          "name": "",
          "type": "uint256"
        }
      ],
      "stateMutability": "view",
      "type": "function"
    },
    {
      "inputs": [
        {
          "internalType": "uint256",
          "name": "proposalId",
          "type": "uint256"
        }
      ],
      "name": "proposalEta",
      "outputs": [
        {
          "internalType": "uint256",
          "name": "",
          "type": "uint256"
        }
      ],
      "stateMutability": "view",
      "type": "function"
    },
    {
      "inputs": [
        {
          "internalType": "uint256",
          "name": "proposalId",
          "type": "uint256"
        }
      ],
      "name": "proposalProposer",
      "outputs": [
        {
          "internalType": "address",
          "name": "",
          "type": "address"
        }
      ],
      "stateMutability": "view",
      "type": "function"
    },
    {
      "inputs": [
        {
          "internalType": "uint256",
          "name": "proposalId",
          "type": "uint256"
        }
      ],
      "name": "proposalSnapshot",
      "outputs": [
        {
          "internalType": "uint256",
          "name": "",
          "type": "uint256"
        }
      ],
      "stateMutability": "view",
      "type": "function"
    },
    {
      "inputs": [],
      "name": "proposalThreshold",
      "outputs": [
        {
          "internalType": "uint256",
          "name": "",
          "type": "uint256"
        }
      ],
      "stateMutability": "view",
      "type": "function"
    },
    {
      "inputs": [
        {
          "internalType": "uint256",
          "name": "proposalId",
          "type": "uint256"
        }
      ],
      "name": "proposalVotes",
      "outputs": [
        {
          "internalType": "uint256",
          "name": "againstVotes",
          "type": "uint256"
        },
        {
          "internalType": "uint256",
          "name": "forVotes",
          "type": "uint256"
        },
        {
          "internalType": "uint256",
          "name": "abstainVotes",
          "type": "uint256"
        }
      ],
      "stateMutability": "view",
      "type": "function"
    },
    {
      "inputs": [
        {
          "internalType": "address[]",
          "name": "targets",
          "type": "address[]"
        },
        {
          "internalType": "uint256[]",
          "name": "values",
          "type": "uint256[]"
        },
        {
          "internalType": "bytes[]",
          "name": "calldatas",
          "type": "bytes[]"
        },
        {
          "internalType": "string",
          "name": "description",
          "type": "string"
        }
      ],
      "name": "propose",
      "outputs": [
        {
          "internalType": "uint256",
          "name": "",
          "type": "uint256"
        }
      ],
      "stateMutability": "nonpayable",
      "type": "function"
    },
    {
      "inputs": [
        {
          "internalType": "address[]",
          "name": "targets",
          "type": "address[]"
        },
        {
          "internalType": "uint256[]",
          "name": "values",
          "type": "uint256[]"
        },
        {
          "internalType": "bytes[]",
          "name": "calldatas",
          "type": "bytes[]"
        },
        {
          "internalType": "bytes32",
          "name": "descriptionHash",
          "type": "bytes32"
        }
      ],
      "name": "queue",
      "outputs": [
        {
          "internalType": "uint256",
          "name": "",
          "type": "uint256"
        }
      ],
      "stateMutability": "nonpayable",
      "type": "function"
    },
    {
      "inputs": [
        {
          "internalType": "uint256",
          "name": "blockNumber",
          "type": "uint256"
        }
      ],
      "name": "quorum",
      "outputs": [
        {
          "internalType": "uint256",
          "name": "",
          "type": "uint256"
        }
      ],
      "stateMutability": "view",
      "type": "function"
    },
    {
      "inputs": [],
      "name": "quorumDenominator",
      "outputs": [
        {
          "internalType": "uint256",
          "name": "",
          "type": "uint256"
        }
      ],
      "stateMutability": "view",
      "type": "function"
    },
    {
      "inputs": [
        {
          "internalType": "uint256",
          "name": "timepoint",
          "type": "uint256"
        }
      ],
      "name": "quorumNumerator",
      "outputs": [
        {
          "internalType": "uint256",
          "name": "",
          "type": "uint256"
        }
      ],
      "stateMutability": "view",
      "type": "function"
    },
    {
      "inputs": [],
      "name": "quorumNumerator",
      "outputs": [
        {
          "internalType": "uint256",
          "name": "",
          "type": "uint256"
        }
      ],
      "stateMutability": "view",
      "type": "function"
    },
    {
      "inputs": [
        {
          "internalType": "address",
          "name": "target",
          "type": "address"
        },
        {
          "internalType": "uint256",
          "name": "value",
          "type": "uint256"
        },
        {
          "internalType": "bytes",
          "name": "data",
          "type": "bytes"
        }
      ],
      "name": "relay",
      "outputs": [],
      "stateMutability": "payable",
      "type": "function"
    },
    {
      "inputs": [],
      "name": "s_votingDelay",
      "outputs": [
        {
          "internalType": "uint256",
          "name": "",
          "type": "uint256"
        }
      ],
      "stateMutability": "view",
      "type": "function"
    },
    {
      "inputs": [],
      "name": "s_votingPeriod",
      "outputs": [
        {
          "internalType": "uint256",
          "name": "",
          "type": "uint256"
        }
      ],
      "stateMutability": "view",
      "type": "function"
    },
    {
      "inputs": [
        {
          "internalType": "uint256",
          "name": "proposalId",
          "type": "uint256"
        }
      ],
      "name": "state",
      "outputs": [
        {
          "internalType": "enum IGovernor.ProposalState",
          "name": "",
          "type": "uint8"
        }
      ],
      "stateMutability": "view",
      "type": "function"
    },
    {
      "inputs": [
        {
          "internalType": "bytes4",
          "name": "interfaceId",
          "type": "bytes4"
        }
      ],
      "name": "supportsInterface",
      "outputs": [
        {
          "internalType": "bool",
          "name": "",
          "type": "bool"
        }
      ],
      "stateMutability": "view",
      "type": "function"
    },
    {
      "inputs": [],
      "name": "timelock",
      "outputs": [
        {
          "internalType": "address",
          "name": "",
          "type": "address"
        }
      ],
      "stateMutability": "view",
      "type": "function"
    },
    {
      "inputs": [],
      "name": "token",
      "outputs": [
        {
          "internalType": "contract IERC5805",
          "name": "",
          "type": "address"
        }
      ],
      "stateMutability": "view",
      "type": "function"
    },
    {
      "inputs": [
        {
          "internalType": "uint256",
          "name": "newQuorumNumerator",
          "type": "uint256"
        }
      ],
      "name": "updateQuorumNumerator",
      "outputs": [],
      "stateMutability": "nonpayable",
      "type": "function"
    },
    {
      "inputs": [
        {
          "internalType": "contract TimelockController",
          "name": "newTimelock",
          "type": "address"
        }
      ],
      "name": "updateTimelock",
      "outputs": [],
      "stateMutability": "nonpayable",
      "type": "function"
    },
    {
      "inputs": [],
      "name": "version",
      "outputs": [
        {
          "internalType": "string",
          "name": "",
          "type": "string"
        }
      ],
      "stateMutability": "view",
      "type": "function"
    },
    {
      "inputs": [],
      "name": "votingDelay",
      "outputs": [
        {
          "internalType": "uint256",
          "name": "",
          "type": "uint256"
        }
      ],
      "stateMutability": "view",
      "type": "function"
    },
    {
      "inputs": [],
      "name": "votingPeriod",
      "outputs": [
        {
          "internalType": "uint256",
          "name": "",
          "type": "uint256"
        }
      ],
      "stateMutability": "view",
      "type": "function"
    },
    {
      "stateMutability": "payable",
      "type": "receive"
    }
  ],
  "transactionHash": "0x39ce95853181f15417a89bd68dcf4cd5e1a70ee34f19f1394a4dd54edc06abf3",
  "args": [
    "0x5FbDB2315678afecb367f032d93F642f64180aa3",
    "0x9fE46736679d2D9a65F0992F2272dE9f3c7fa6e0",
    4,
    5,
    1
  ],
  "numDeployments": 1,
  "solcInputHash": "f91e4011fa933bfa12473769ec34514a",
  "bytecode": "0x6101806040523480156200001257600080fd5b5060405162005a9138038062005a9183398101604081905262000035916200077f565b8383866040518060400160405280601081526020016f11dbdd995c9b9bdc90dbdb9d1c9858dd60821b81525080620000726200012260201b60201c565b6200008d6000836200013d60201b620015a61790919060201c565b61012052620000aa8160016200013d602090811b620015a617901c565b61014052815160208084019190912060e052815190820120610100524660a052620000d46200018d565b60805250503060c0526002620000eb828262000913565b50506001600160a01b0316610160526200010581620001e9565b50620001118162000348565b50600b55600c555062000d6b915050565b6040805180820190915260018152603160f81b602082015290565b60006020835110156200015d576200015583620003b3565b905062000187565b826200017483620003f660201b620015d71760201c565b9062000181908262000913565b5060ff90505b92915050565b60e05161010051604051600092620001ce927f8b73c3c69bb8fe3d512ecc4cf759cc79239f7b179b0ffacaa9a75d522b39400f9246903090602001620009f6565b60405160208183030381529060405280519060200120905090565b6064811115620002165760405162461bcd60e51b81526004016200020d9062000a4c565b60405180910390fd5b600062000222620003f9565b90508015801590620002345750600854155b15620002af5760086000016040518060400160405280600063ffffffff1681526020016200026d846200043360201b620015da1760201c565b6001600160e01b0390811690915282546001810184556000938452602093849020835194909301519091166401000000000263ffffffff909316929092179101555b62000307620002da620002c162000463565b65ffffffffffff16620004e560201b620016071760201c565b620002f0846200043360201b620015da1760201c565b60086200050e60201b6200162d179092919060201c565b50507f0553476bf02ef2726e8ce5ced78d63e26e602e4a2257b1f559418e24b463399781836040516200033c92919062000aba565b60405180910390a15050565b6009546040517f08f74ea46ef7894f65eabfb5e6e695de773a000b47c529ab559178069b2264019162000389916001600160a01b0390911690849062000ad9565b60405180910390a1600980546001600160a01b0319166001600160a01b0392909216919091179055565b600080829050601f81511115620003e1578260405163305a27a960e01b81526004016200020d919062000b53565b8051620003ee8262000b71565b179392505050565b90565b600854600090156200042a576200041c60086200052b60201b620016481760201c565b6001600160e01b0316905090565b6007545b905090565b60006001600160e01b038211156200045f5760405162461bcd60e51b81526004016200020d9062000bfc565b5090565b6000610160516001600160a01b03166391ddadf46040518163ffffffff1660e01b8152600401602060405180830381865afa925050508015620004c5575060408051601f3d908101601f19168201909252620004c29181019062000c2a565b60015b620004e0576200042e436200057960201b620016861760201c565b919050565b600063ffffffff8211156200045f5760405162461bcd60e51b81526004016200020d9062000c9b565b6000806200051e858585620005a4565b915091505b935093915050565b805460009080156200056f5762000557836200054960018462000cc3565b600091825260209091200190565b5464010000000090046001600160e01b031662000572565b60005b9392505050565b600065ffffffffffff8211156200045f5760405162461bcd60e51b81526004016200020d9062000d1d565b825460009081908015620006ca576000620005c6876200054960018562000cc3565b60408051808201909152905463ffffffff8082168084526401000000009092046001600160e01b0316602084015291925090871610156200061b5760405162461bcd60e51b81526004016200020d9062000d2f565b805163ffffffff80881691160362000669578462000640886200054960018662000cc3565b80546001600160e01b03929092166401000000000263ffffffff909216919091179055620006b9565b6040805180820190915263ffffffff80881682526001600160e01b0380881660208085019182528b54600181018d5560008d81529190912094519151909216640100000000029216919091179101555b602001519250839150620005239050565b50506040805180820190915263ffffffff80851682526001600160e01b0380851660208085019182528854600181018a5560008a81529182209551925190931664010000000002919093161792019190915590508162000523565b60006001600160a01b03821662000187565b6000620001878262000725565b6200074f8162000737565b81146200075b57600080fd5b50565b8051620001878162000744565b806200074f565b805162000187816200076b565b600080600080600060a086880312156200079c576200079c600080fd5b6000620007aa88886200075e565b9550506020620007bd888289016200075e565b9450506040620007d08882890162000772565b9350506060620007e38882890162000772565b9250506080620007f68882890162000772565b9150509295509295909350565b634e487b7160e01b600052604160045260246000fd5b634e487b7160e01b600052602260045260246000fd5b6002810460018216806200084457607f821691505b60208210810362000859576200085962000819565b50919050565b600062000187620003f68381565b62000878836200085f565b81546008840282811b60001990911b908116901990911617825550505050565b6000620008a78184846200086d565b505050565b81811015620008cb57620008c260008262000898565b600101620008ac565b5050565b601f821115620008a7576000818152602090206020601f85010481016020851015620008f85750805b6200090c6020601f860104830182620008ac565b5050505050565b81516001600160401b038111156200092f576200092f62000803565b6200093b82546200082f565b62000948828285620008cf565b6020601f8311600181146200097f5760008415620009665750858201515b600019600886021c1981166002860217865550620009db565b600085815260208120601f198616915b82811015620009b157888501518255602094850194600190920191016200098f565b86831015620009ce5784890151600019601f89166008021c191682555b6001600288020188555050505b505050505050565b805b82525050565b620009e58162000725565b60a0810162000a068288620009e3565b62000a156020830187620009e3565b62000a246040830186620009e3565b62000a336060830185620009e3565b62000a426080830184620009eb565b9695505050505050565b602080825281016200018781604381527f476f7665726e6f72566f74657351756f72756d4672616374696f6e3a2071756f60208201527f72756d4e756d657261746f72206f7665722071756f72756d44656e6f6d696e616040820152623a37b960e91b606082015260800190565b6040810162000aca8285620009e3565b620005726020830184620009e3565b6040810162000ae98285620009eb565b620005726020830184620009eb565b60005b8381101562000b1557818101518382015260200162000afb565b50506000910152565b600062000b29825190565b80845260208401935062000b4281856020860162000af8565b601f01601f19169290920192915050565b6020808252810162000572818462000b1e565b600062000187825190565b600062000b7c825190565b6020830162000b8b8162000b66565b9250602082101562000bae5762000ba9600019836020036008021b90565b831692505b5050919050565b602781526000602082017f53616665436173743a2076616c756520646f65736e27742066697420696e20328152663234206269747360c81b602082015291505b5060400190565b60208082528101620001878162000bb5565b65ffffffffffff81166200074f565b8051620001878162000c0e565b60006020828403121562000c415762000c41600080fd5b600062000c4f848462000c1d565b949350505050565b602681526000602082017f53616665436173743a2076616c756520646f65736e27742066697420696e203381526532206269747360d01b6020820152915062000bf5565b60208082528101620001878162000c57565b634e487b7160e01b600052601160045260246000fd5b8181038181111562000187576200018762000cad565b602681526000602082017f53616665436173743a2076616c756520646f65736e27742066697420696e203481526538206269747360d01b6020820152915062000bf5565b60208082528101620001878162000cd9565b602080825281016200018781601b81527f436865636b706f696e743a2064656372656173696e67206b6579730000000000602082015260400190565b60805160a05160c05160e05161010051610120516101405161016051614ca462000ded6000396000818161093901528181610fa10152818161125d0152818161208901526121c801526000611209015260006111df01526000612cf901526000612cd8015260006124a8015260006124d2015260006124fc0152614ca46000f3fe6080604052600436106102765760003560e01c806360c4247f1161014f578063b58131b0116100c1578063dd4e2ba51161007a578063dd4e2ba514610841578063deaaa7cc14610887578063eb9019d4146108bb578063f23a6e61146108db578063f8ce560a14610907578063fc0c546a1461092757600080fd5b8063b58131b014610777578063bc197c811461078b578063c01f9e37146107b7578063c28bc2fa146107f0578063c59057e414610803578063d33219b41461082357600080fd5b806391ddadf41161011357806391ddadf4146106cc57806397c3d334146106ee5780639a802a6d14610702578063a7713a7014610722578063a890c91014610737578063ab58fb8e1461075757600080fd5b806360c4247f1461062e578063725ae3dc1461064e5780637b3c71d3146106645780637d5e81e21461068457806384b0196e146106a457600080fd5b80632fe3e261116101e8578063452115d6116101ac578063452115d6146105465780634bf5d7e914610566578063544ffc9c1461057b57806354fd4d50146105c457806356781388146105ee5780635f398a141461060e57600080fd5b80632fe3e261146104665780633932abb11461049a5780633bccf4fd146104af5780633e4f49e6146104cf57806343859632146104fc57600080fd5b8063102d7f2c1161023a578063102d7f2c14610370578063143489d014610386578063150b7a02146103d0578063160cbed7146103fd5780632656227d1461041d5780632d63f6931461043057600080fd5b806301ffc9a7146102ba57806302a251a3146102f0578063034201811461030e57806306f3f9e61461032e57806306fdde031461034e57600080fd5b366102b55730610284610968565b6001600160a01b0316146102b35760405162461bcd60e51b81526004016102aa90613025565b60405180910390fd5b005b600080fd5b3480156102c657600080fd5b506102da6102d5366004613057565b610981565b6040516102e79190613082565b60405180910390f35b3480156102fc57600080fd5b50600c545b6040516102e79190613096565b34801561031a57600080fd5b50610301610329366004613206565b610992565b34801561033a57600080fd5b506102b36103493660046132dd565b610a69565b34801561035a57600080fd5b50610363610af3565b6040516102e79190613354565b34801561037c57600080fd5b50610301600b5481565b34801561039257600080fd5b506103c36103a13660046132dd565b600090815260036020526040902054600160401b90046001600160a01b031690565b6040516102e7919061337f565b3480156103dc57600080fd5b506103f06103eb3660046133a1565b610b85565b6040516102e7919061342f565b34801561040957600080fd5b506103016104183660046135e5565b610b96565b61030161042b3660046135e5565b610d94565b34801561043c57600080fd5b5061030161044b3660046132dd565b6000908152600360205260409020546001600160401b031690565b34801561047257600080fd5b506103017fb3b3f3b703cd84ce352197dcff232b1b5d3cfb2025ce47cf04742d0651f1af8881565b3480156104a657600080fd5b50600b54610301565b3480156104bb57600080fd5b506103016104ca36600461368a565b610e84565b3480156104db57600080fd5b506104ef6104ea3660046132dd565b610eec565b6040516102e79190613746565b34801561050857600080fd5b506102da610517366004613754565b60008281526006602090815260408083206001600160a01b038516845260030190915290205460ff1692915050565b34801561055257600080fd5b506103016105613660046135e5565b610ef7565b34801561057257600080fd5b50610363610f9d565b34801561058757600080fd5b506105b56105963660046132dd565b6000908152600660205260409020805460018201546002909201549092565b6040516102e793929190613791565b3480156105d057600080fd5b506040805180820190915260018152603160f81b6020820152610363565b3480156105fa57600080fd5b506103016106093660046137b9565b61105f565b34801561061a57600080fd5b506103016106293660046137ec565b611080565b34801561063a57600080fd5b506103016106493660046132dd565b6110ca565b34801561065a57600080fd5b50610301600c5481565b34801561067057600080fd5b5061030161067f36600461387c565b61117b565b34801561069057600080fd5b5061030161069f3660046138e9565b6111c3565b3480156106b057600080fd5b506106b96111d1565b6040516102e797969594939291906139ea565b3480156106d857600080fd5b506106e1611259565b6040516102e79190613a74565b3480156106fa57600080fd5b506064610301565b34801561070e57600080fd5b5061030161071d366004613a82565b6112e2565b34801561072e57600080fd5b506103016112f9565b34801561074357600080fd5b506102b3610752366004613b0b565b611323565b34801561076357600080fd5b506103016107723660046132dd565b6113aa565b34801561078357600080fd5b506000610301565b34801561079757600080fd5b506103f06107a6366004613b2c565b63bc197c8160e01b95945050505050565b3480156107c357600080fd5b506103016107d23660046132dd565b6000908152600360205260409020600101546001600160401b031690565b6102b36107fe366004613bd9565b611446565b34801561080f57600080fd5b5061030161081e3660046135e5565b611555565b34801561082f57600080fd5b506009546001600160a01b03166103c3565b34801561084d57600080fd5b506040805180820190915260208082527f737570706f72743d627261766f2671756f72756d3d666f722c6162737461696e90820152610363565b34801561089357600080fd5b506103017f150214d74d59b7d1e90c73fc22ef3d991dd0a76b046543d4d80ab92d2a50328f81565b3480156108c757600080fd5b506103016108d6366004613c0f565b61158f565b3480156108e757600080fd5b506103f06108f6366004613c42565b63f23a6e6160e01b95945050505050565b34801561091357600080fd5b506103016109223660046132dd565b61159b565b34801561093357600080fd5b5061095b7f000000000000000000000000000000000000000000000000000000000000000081565b6040516102e79190613cd6565b600061097c6009546001600160a01b031690565b905090565b600061098c826116ae565b92915050565b600080610a15610a0d7fb3b3f3b703cd84ce352197dcff232b1b5d3cfb2025ce47cf04742d0651f1af888c8c8c8c6040516109ce929190613cf7565b60405180910390208b805190602001206040516020016109f2959493929190613d0d565b604051602081830303815290604052805190602001206116d3565b868686611700565b9050610a5b8a828b8b8b8080601f0160208091040260200160405190810160405280939291908181526020018383808284376000920191909152508d925061171e915050565b9a9950505050505050505050565b610a71610968565b6001600160a01b0316336001600160a01b031614610aa15760405162461bcd60e51b81526004016102aa90613d83565b30610aaa610968565b6001600160a01b031614610ae75760008036604051610aca929190613cf7565b604051809103902090505b80610ae06004611837565b03610ad557505b610af0816118b6565b50565b606060028054610b0290613da9565b80601f0160208091040260200160405190810160405280929190818152602001828054610b2e90613da9565b8015610b7b5780601f10610b5057610100808354040283529160200191610b7b565b820191906000526020600020905b815481529060010190602001808311610b5e57829003601f168201915b5050505050905090565b630a85bd0160e11b5b949350505050565b600080610ba586868686611555565b90506004610bb282610eec565b6007811115610bc357610bc3613702565b14610be05760405162461bcd60e51b81526004016102aa90613e16565b6009546040805163793d064960e11b815290516000926001600160a01b03169163f27a0c929160048083019260209291908290030181865afa158015610c2a573d6000803e3d6000fd5b505050506040513d601f19601f82011682018060405250810190610c4e9190613e31565b60095460405163b1c5f42760e01b81529192506001600160a01b03169063b1c5f42790610c88908a908a908a906000908b90600401613f23565b602060405180830381865afa158015610ca5573d6000803e3d6000fd5b505050506040513d601f19601f82011682018060405250810190610cc99190613e31565b6000838152600a60205260408082209290925560095491516308f2a0bb60e41b81526001600160a01b0390921691638f2a0bb091610d14918b918b918b91908b908990600401613f6b565b600060405180830381600087803b158015610d2e57600080fd5b505af1158015610d42573d6000803e3d6000fd5b505050507f9a2e42fd6722813d69113e7d0079d3d940171428df7373df9c7f7617cfda2892828242610d749190613fe3565b604051610d82929190613ff6565b60405180910390a15095945050505050565b600080610da386868686611555565b90506000610db082610eec565b90506004816007811115610dc657610dc6613702565b1480610de357506005816007811115610de157610de1613702565b145b610dff5760405162461bcd60e51b81526004016102aa90613e16565b60008281526003602052604090819020600201805460ff19166001179055517f712ae1383f79ac853f8d882153778e0260ef8f03b504e2866e0593e04d2b291f90610e4b908490613096565b60405180910390a1610e6082888888886119c2565b610e6d8288888888611a64565b610e7a8288888888611a71565b5095945050505050565b600080610ec2610a0d7f150214d74d59b7d1e90c73fc22ef3d991dd0a76b046543d4d80ab92d2a50328f89896040516020016109f293929190614011565b9050610edf87828860405180602001604052806000815250611aaa565b9150505b95945050505050565b600061098c82611acd565b600080610f0686868686611555565b90506000610f1382610eec565b6007811115610f2457610f24613702565b14610f415760405162461bcd60e51b81526004016102aa9061406d565b600081815260036020526040902054600160401b90046001600160a01b0316336001600160a01b031614610f875760405162461bcd60e51b81526004016102aa906140bc565b610f9386868686611c26565b9695505050505050565b60607f00000000000000000000000000000000000000000000000000000000000000006001600160a01b0316634bf5d7e96040518163ffffffff1660e01b8152600401600060405180830381865afa92505050801561101e57506040513d6000823e601f3d908101601f1916820160405261101b9190810190614124565b60015b61105a575060408051808201909152601d81527f6d6f64653d626c6f636b6e756d6265722666726f6d3d64656661756c74000000602082015290565b919050565b600080339050610b8e84828560405180602001604052806000815250611aaa565b600080339050610edf87828888888080601f0160208091040260200160405190810160405280939291908181526020018383808284376000920191909152508a925061171e915050565b6008546000908082036110e1575050600754919050565b600060086110f060018461415e565b8154811061110057611100614171565b60009182526020918290206040805180820190915291015463ffffffff8116808352600160201b9091046001600160e01b0316928201929092529150841061115657602001516001600160e01b03169392505050565b61116a61116285611607565b600890611c34565b6001600160e01b0316949350505050565b600080339050610f9386828787878080601f016020809104026020016040519081016040528093929190818152602001838380828437600092019190915250611aaa92505050565b6000610ee385858585611cda565b6000606080828080836112047f000000000000000000000000000000000000000000000000000000000000000083611fcb565b61122f7f00000000000000000000000000000000000000000000000000000000000000006001611fcb565b60408051600080825260208201909252600f60f81b9b939a50919850469750309650945092509050565b60007f00000000000000000000000000000000000000000000000000000000000000006001600160a01b03166391ddadf46040518163ffffffff1660e01b8152600401602060405180830381865afa9250505080156112d5575060408051601f3d908101601f191682019092526112d2918101906141a0565b60015b61105a5761097c43611686565b60006112ef84848461206f565b90505b9392505050565b6008546000901561131c5761130e6008611648565b6001600160e01b0316905090565b5060075490565b61132b610968565b6001600160a01b0316336001600160a01b03161461135b5760405162461bcd60e51b81526004016102aa90613d83565b30611364610968565b6001600160a01b0316146113a15760008036604051611384929190613cf7565b604051809103902090505b8061139a6004611837565b0361138f57505b610af081612101565b6009546000828152600a602052604080822054905163d45c443560e01b8152919283926001600160a01b039091169163d45c4435916113ec9190600401613096565b602060405180830381865afa158015611409573d6000803e3d6000fd5b505050506040513d601f19601f8201168201806040525081019061142d9190613e31565b90508060011461143d57806112f2565b60009392505050565b61144e610968565b6001600160a01b0316336001600160a01b03161461147e5760405162461bcd60e51b81526004016102aa90613d83565b30611487610968565b6001600160a01b0316146114c457600080366040516114a7929190613cf7565b604051809103902090505b806114bd6004611837565b036114b257505b600080856001600160a01b03168585856040516114e2929190613cf7565b60006040518083038185875af1925050503d806000811461151f576040519150601f19603f3d011682016040523d82523d6000602084013e611524565b606091505b509150915061154c8282604051806060016040528060288152602001614c476028913961216a565b50505050505050565b60008484848460405160200161156e94939291906141c1565b60408051601f19818403018152919052805160209091012095945050505050565b60006112f28383612183565b600061098c826121a4565b60006020835110156115c2576115bb83612252565b905061098c565b816115cd8482614298565b5060ff905061098c565b90565b60006001600160e01b038211156116035760405162461bcd60e51b81526004016102aa9061439e565b5090565b600063ffffffff8211156116035760405162461bcd60e51b81526004016102aa906143f1565b60008061163b858585612290565b915091505b935093915050565b8054600090801561143d576116708361166260018461415e565b600091825260209091200190565b54600160201b90046001600160e01b03166112f2565b600065ffffffffffff8211156116035760405162461bcd60e51b81526004016102aa90614444565b60006001600160e01b03198216636e665ced60e01b148061098c575061098c826123ff565b600061098c6116e061249b565b8360405161190160f01b8152600281019290925260228201526042902090565b600080600061171187878787612526565b91509150610e7a816125dd565b6000858152600360205260408120600161173788610eec565b600781111561174857611748613702565b146117655760405162461bcd60e51b81526004016102aa90614494565b805460009061177f9088906001600160401b03168661206f565b905061178e888888848861268c565b83516000036117e357866001600160a01b03167fb8e138887d0aa13bab447e82de9d5c1777041ecd21ca36ba824ff1e6c07ddda4898884896040516117d694939291906144a4565b60405180910390a2610edf565b866001600160a01b03167fe2babfbac5889a709b63bb7f598b324e08bc5a4fb9ec647fb3cbc9ec07eb871289888489896040516118249594939291906144de565b60405180910390a2979650505050505050565b60006118528254600f81810b600160801b909204900b131590565b1561187057604051631ed9509560e11b815260040160405180910390fd5b508054600f0b6000818152600180840160205260408220805492905583546fffffffffffffffffffffffffffffffff191692016001600160801b03169190911790915590565b60648111156118d75760405162461bcd60e51b81526004016102aa9061452c565b60006118e16112f9565b905080158015906118f25750600854155b1561195657604080518082019091526000815260089060208101611915846115da565b6001600160e01b039081169091528254600181018455600093845260209384902083519490930151909116600160201b0263ffffffff909316929092179101555b611983611971611964611259565b65ffffffffffff16611607565b61197a846115da565b6008919061162d565b50507f0553476bf02ef2726e8ce5ced78d63e26e602e4a2257b1f559418e24b463399781836040516119b6929190613ff6565b60405180910390a15050565b306119cb610968565b6001600160a01b031614611a5d5760005b8451811015611a5b57306001600160a01b0316858281518110611a0157611a01614171565b60200260200101516001600160a01b031603611a4b57611a4b838281518110611a2c57611a2c614171565b602002602001015180519060200120600461277890919063ffffffff16565b611a5481614599565b90506119dc565b505b5050505050565b611a5d85858585856127b4565b30611a7a610968565b6001600160a01b031614611a5d57600454600f81810b600160801b909204900b1315611a5d576000600455611a5d565b6000610ee385858585611ac860408051602081019091526000815290565b61171e565b600080611ad983612828565b90506004816007811115611aef57611aef613702565b14611afa5792915050565b6000838152600a602052604090205480611b15575092915050565b600954604051632ab0f52960e01b81526001600160a01b0390911690632ab0f52990611b45908490600401613096565b602060405180830381865afa158015611b62573d6000803e3d6000fd5b505050506040513d601f19601f82011682018060405250810190611b8691906145c6565b15611b95575060079392505050565b600954604051632c258a9f60e11b81526001600160a01b039091169063584b153e90611bc5908490600401613096565b602060405180830381865afa158015611be2573d6000803e3d6000fd5b505050506040513d601f19601f82011682018060405250810190611c0691906145c6565b15611c15575060059392505050565b5060029392505050565b5050919050565b6000610ee385858585612938565b815460009081816005811115611c91576000611c4f846129e6565b611c59908561415e565b60008881526020902090915081015463ffffffff9081169087161015611c8157809150611c8f565b611c8c816001613fe3565b92505b505b6000611c9f87878585612ace565b90508015611ccc57611cb68761166260018461415e565b54600160201b90046001600160e01b0316611ccf565b60005b979650505050505050565b600033611ce78184612b2c565b611d035760405162461bcd60e51b81526004016102aa9061461b565b6000611d0d611259565b65ffffffffffff1690506000611d28836108d660018561415e565b1015611d465760405162461bcd60e51b81526004016102aa90614679565b6000611d5b8888888880519060200120611555565b90508651885114611d7e5760405162461bcd60e51b81526004016102aa906146c7565b8551885114611d9f5760405162461bcd60e51b81526004016102aa906146c7565b6000885111611dc05760405162461bcd60e51b81526004016102aa9061470b565b6000818152600360205260409020546001600160401b031615611df55760405162461bcd60e51b81526004016102aa90614759565b6000611e00600b5490565b611e0a9084613fe3565b90506000611e17600c5490565b611e219083613fe3565b90506040518060e00160405280611e3784612c1d565b6001600160401b031681526001600160a01b038716602082015260006040820152606001611e6483612c1d565b6001600160401b039081168252600060208084018290526040808501839052606094850183905288835260038252918290208551815492870151878501519186166001600160e01b031990941693909317600160401b6001600160a01b039094168402176001600160e01b0316600160e01b60e09290921c91909102178155938501516080860151908416921c0217600183015560a08301516002909201805460c09094015161ffff1990941692151561ff00191692909217610100931515939093029290921790558a517f7d84a6263ae0d98d3329bd7b46bb4e8d6f98cd35a7adb45c274c8b7fd5ebd5e091859188918e918e91811115611f6857611f6861311a565b604051908082528060200260200182016040528015611f9b57816020015b6060815260200190600190039081611f865790505b508d88888f604051611fb5999897969594939291906147c2565b60405180910390a1509098975050505050505050565b606060ff8314611fde576115bb83612c46565b818054611fea90613da9565b80601f016020809104026020016040519081016040528092919081815260200182805461201690613da9565b80156120635780601f1061203857610100808354040283529160200191612063565b820191906000526020600020905b81548152906001019060200180831161204657829003601f168201915b5050505050905061098c565b604051630748d63560e31b81526000906001600160a01b037f00000000000000000000000000000000000000000000000000000000000000001690633a46b1a8906120c0908790879060040161486a565b602060405180830381865afa1580156120dd573d6000803e3d6000fd5b505050506040513d601f19601f820116820180604052508101906112ef9190613e31565b6009546040517f08f74ea46ef7894f65eabfb5e6e695de773a000b47c529ab559178069b22640191612140916001600160a01b03909116908490614878565b60405180910390a1600980546001600160a01b0319166001600160a01b0392909216919091179055565b606083156121795750816112f2565b6112f28383612c85565b60006112f2838361219f60408051602081019091526000815290565b61206f565b600060646121b1836110ca565b604051632394e7a360e21b81526001600160a01b037f00000000000000000000000000000000000000000000000000000000000000001690638e539e8c906121fd908790600401613096565b602060405180830381865afa15801561221a573d6000803e3d6000fd5b505050506040513d601f19601f8201168201806040525081019061223e9190613e31565b6122489190614893565b61098c91906148c8565b600080829050601f8151111561227d578260405163305a27a960e01b81526004016102aa9190613354565b8051612288826148e6565b179392505050565b8254600090819080156123a65760006122ae8761166260018561415e565b60408051808201909152905463ffffffff808216808452600160201b9092046001600160e01b0316602084015291925090871610156122ff5760405162461bcd60e51b81526004016102aa90614957565b805163ffffffff80881691160361234757846123208861166260018661415e565b80546001600160e01b0392909216600160201b0263ffffffff909216919091179055612396565b6040805180820190915263ffffffff80881682526001600160e01b0380881660208085019182528b54600181018d5560008d81529190912094519151909216600160201b029216919091179101555b6020015192508391506116409050565b50506040805180820190915263ffffffff80851682526001600160e01b0380851660208085019182528854600181018a5560008a815291822095519251909316600160201b029190931617920191909155905081611640565b600063288ace0360e11b6318df743f60e31b63bf26d89760e01b6379dd796f60e01b6001600160e01b0319861682148061244557506001600160e01b0319868116908216145b8061245c57506001600160e01b0319868116908516145b8061247757506001600160e01b03198616630271189760e51b145b80610f9357506301ffc9a760e01b6001600160e01b03198716149695505050505050565b6000306001600160a01b037f0000000000000000000000000000000000000000000000000000000000000000161480156124f457507f000000000000000000000000000000000000000000000000000000000000000046145b1561251e57507f000000000000000000000000000000000000000000000000000000000000000090565b61097c612cb3565b6000807f7fffffffffffffffffffffffffffffff5d576e7357a4501ddfe92f46681b20a083111561255d57506000905060036125d4565b6000600187878787604051600081526020016040526040516125829493929190614967565b6020604051602081039080840390855afa1580156125a4573d6000803e3d6000fd5b5050604051601f1901519150506001600160a01b0381166125cd576000600192509250506125d4565b9150600090505b94509492505050565b60008160048111156125f1576125f1613702565b036125f95750565b600181600481111561260d5761260d613702565b0361262a5760405162461bcd60e51b81526004016102aa906149d0565b600281600481111561263e5761263e613702565b0361265b5760405162461bcd60e51b81526004016102aa90614a14565b600381600481111561266f5761266f613702565b03610af05760405162461bcd60e51b81526004016102aa90614a63565b60008581526006602090815260408083206001600160a01b0388168452600381019092529091205460ff16156126d45760405162461bcd60e51b81526004016102aa90614ab7565b6001600160a01b03851660009081526003820160205260409020805460ff1916600117905560ff841661272057828160000160008282546127159190613fe3565b90915550611a5b9050565b60001960ff85160161274057828160010160008282546127159190613fe3565b60011960ff85160161276057828160020160008282546127159190613fe3565b60405162461bcd60e51b81526004016102aa90614b19565b8154600160801b90819004600f0b6000818152600180860160205260409091209390935583546001600160801b03908116939091011602179055565b60095460405163e38335e560e01b81526001600160a01b039091169063e38335e59034906127ef908890889088906000908990600401613f23565b6000604051808303818588803b15801561280857600080fd5b505af115801561281c573d6000803e3d6000fd5b50505050505050505050565b6000818152600360205260408120600281015460ff161561284c5750600792915050565b6002810154610100900460ff16156128675750600292915050565b6000838152600360205260408120546001600160401b03169081900361289f5760405162461bcd60e51b81526004016102aa90614b5d565b60006128a9611259565b65ffffffffffff1690508082106128c557506000949350505050565b6000858152600360205260409020600101546001600160401b03168181106128f35750600195945050505050565b6128fc86612d49565b801561291b575060008681526006602052604090208054600190910154115b1561292c5750600495945050505050565b50600395945050505050565b60008061294786868686612d95565b6000818152600a602052604090205490915015610ee3576009546000828152600a60205260409081902054905163c4d252f560e01b81526001600160a01b039092169163c4d252f59161299c91600401613096565b600060405180830381600087803b1580156129b657600080fd5b505af11580156129ca573d6000803e3d6000fd5b5050506000828152600a60205260408120555095945050505050565b6000816000036129f857506000919050565b60006001612a0584612e6f565b901c6001901b90506001818481612a1e57612a1e6148b2565b048201901c90506001818481612a3657612a366148b2565b048201901c90506001818481612a4e57612a4e6148b2565b048201901c90506001818481612a6657612a666148b2565b048201901c90506001818481612a7e57612a7e6148b2565b048201901c90506001818481612a9657612a966148b2565b048201901c90506001818481612aae57612aae6148b2565b048201901c90506112f281828581612ac857612ac86148b2565b04612f03565b60005b81831015612b24576000612ae58484612f19565b60008781526020902090915063ffffffff86169082015463ffffffff161115612b1057809250612b1e565b612b1b816001613fe3565b93505b50612ad1565b509392505050565b80516000906034811015612b4457600191505061098c565b82810160131901516001600160a01b031981166b046e0e4dee0dee6cae47a60f60a31b14612b775760019250505061098c565b600080612b8560288561415e565b90505b83811015612bfc57600080612bbc888481518110612ba857612ba8614171565b01602001516001600160f81b031916612f34565b9150915081612bd4576001965050505050505061098c565b8060ff166004856001600160a01b0316901b179350505080612bf590614599565b9050612b88565b50856001600160a01b0316816001600160a01b031614935050505092915050565b60006001600160401b038211156116035760405162461bcd60e51b81526004016102aa90614bb0565b60606000612c5383612fc6565b604080516020808252818301909252919250600091906020820181803683375050509182525060208101929092525090565b815115612c955781518083602001fd5b8060405162461bcd60e51b81526004016102aa9190613354565b5050565b60007f8b73c3c69bb8fe3d512ecc4cf759cc79239f7b179b0ffacaa9a75d522b39400f7f00000000000000000000000000000000000000000000000000000000000000007f00000000000000000000000000000000000000000000000000000000000000004630604051602001612d2e959493929190614bc0565b60405160208183030381529060405280519060200120905090565b600081815260066020526040812060028101546001820154612d6b9190613fe3565b600084815260036020526040902054612d8c906001600160401b031661159b565b11159392505050565b600080612da486868686611555565b90506000612db182610eec565b90506002816007811115612dc757612dc7613702565b14158015612de757506006816007811115612de457612de4613702565b14155b8015612e0557506007816007811115612e0257612e02613702565b14155b612e215760405162461bcd60e51b81526004016102aa90614c36565b60008281526003602052604090819020600201805461ff001916610100179055517f789cf55be980739dad1d0699b93b58e806b51c9d96619bfa8fe0a28abaa7b30c90610d82908490613096565b600080608083901c15612e8457608092831c92015b604083901c15612e9657604092831c92015b602083901c15612ea857602092831c92015b601083901c15612eba57601092831c92015b600883901c15612ecc57600892831c92015b600483901c15612ede57600492831c92015b600283901c15612ef057600292831c92015b600183901c1561098c5760010192915050565b6000818310612f1257816112f2565b5090919050565b6000612f2860028484186148c8565b6112f290848416613fe3565b60008060f883901c602f81118015612f4f5750603a8160ff16105b15612f6457600194602f199091019350915050565b8060ff166040108015612f7a575060478160ff16105b15612f8f576001946036199091019350915050565b8060ff166060108015612fa5575060678160ff16105b15612fba576001946056199091019350915050565b50600093849350915050565b600060ff8216601f81111561098c57604051632cd44ac360e21b815260040160405180910390fd5b601f81526000602082017f476f7665726e6f723a206d7573742073656e6420746f206578656375746f7200815291505b5060200190565b6020808252810161098c81612fee565b6001600160e01b031981165b8114610af057600080fd5b803561098c81613035565b60006020828403121561306c5761306c600080fd5b6000610b8e848461304c565b8015155b82525050565b6020810161098c8284613078565b8061307c565b6020810161098c8284613090565b80613041565b803561098c816130a4565b60ff8116613041565b803561098c816130b5565b60008083601f8401126130de576130de600080fd5b5081356001600160401b038111156130f8576130f8600080fd5b60208301915083600182028301111561311357613113600080fd5b9250929050565b634e487b7160e01b600052604160045260246000fd5b601f19601f83011681018181106001600160401b03821117156131555761315561311a565b6040525050565b600061316760405190565b905061105a8282613130565b60006001600160401b0382111561318c5761318c61311a565b601f19601f83011660200192915050565b82818337506000910152565b60006131bc6131b784613173565b61315c565b9050828152602081018484840111156131d7576131d7600080fd5b612b2484828561319d565b600082601f8301126131f6576131f6600080fd5b8135610b8e8482602086016131a9565b60008060008060008060008060e0898b03121561322557613225600080fd5b60006132318b8b6130aa565b98505060206132428b828c016130be565b97505060408901356001600160401b0381111561326157613261600080fd5b61326d8b828c016130c9565b965096505060608901356001600160401b0381111561328e5761328e600080fd5b61329a8b828c016131e2565b94505060806132ab8b828c016130be565b93505060a06132bc8b828c016130aa565b92505060c06132cd8b828c016130aa565b9150509295985092959890939650565b6000602082840312156132f2576132f2600080fd5b6000610b8e84846130aa565b60005b83811015613319578181015183820152602001613301565b50506000910152565b600061332c825190565b8084526020840193506133438185602086016132fe565b601f01601f19169290920192915050565b602080825281016112f28184613322565b60006001600160a01b03821661098c565b61307c81613365565b6020810161098c8284613376565b61304181613365565b803561098c8161338d565b600080600080608085870312156133ba576133ba600080fd5b60006133c68787613396565b94505060206133d787828801613396565b93505060406133e8878288016130aa565b92505060608501356001600160401b0381111561340757613407600080fd5b613413878288016131e2565b91505092959194509250565b6001600160e01b0319811661307c565b6020810161098c828461341f565b60006001600160401b038211156134565761345661311a565b5060209081020190565b600061346e6131b78461343d565b8381529050602080820190840283018581111561348d5761348d600080fd5b835b818110156134b157806134a28882613396565b8452506020928301920161348f565b5050509392505050565b600082601f8301126134cf576134cf600080fd5b8135610b8e848260208601613460565b60006134ed6131b78461343d565b8381529050602080820190840283018581111561350c5761350c600080fd5b835b818110156134b1578061352188826130aa565b8452506020928301920161350e565b600082601f83011261354457613544600080fd5b8135610b8e8482602086016134df565b60006135626131b78461343d565b8381529050602080820190840283018581111561358157613581600080fd5b835b818110156134b15780356001600160401b038111156135a4576135a4600080fd5b8086016135b189826131e2565b8552505060209283019201613583565b600082601f8301126135d5576135d5600080fd5b8135610b8e848260208601613554565b600080600080608085870312156135fe576135fe600080fd5b84356001600160401b0381111561361757613617600080fd5b613623878288016134bb565b94505060208501356001600160401b0381111561364257613642600080fd5b61364e87828801613530565b93505060408501356001600160401b0381111561366d5761366d600080fd5b613679878288016135c1565b9250506060613413878288016130aa565b600080600080600060a086880312156136a5576136a5600080fd5b60006136b188886130aa565b95505060206136c2888289016130be565b94505060406136d3888289016130be565b93505060606136e4888289016130aa565b92505060806136f5888289016130aa565b9150509295509295909350565b634e487b7160e01b600052602160045260246000fd5b60088110610af057610af0613702565b8061105a81613718565b600061098c82613728565b61307c81613732565b6020810161098c828461373d565b6000806040838503121561376a5761376a600080fd5b600061377685856130aa565b925050602061378785828601613396565b9150509250929050565b6060810161379f8286613090565b6137ac6020830185613090565b610b8e6040830184613090565b600080604083850312156137cf576137cf600080fd5b60006137db85856130aa565b9250506020613787858286016130be565b60008060008060006080868803121561380757613807600080fd5b600061381388886130aa565b9550506020613824888289016130be565b94505060408601356001600160401b0381111561384357613843600080fd5b61384f888289016130c9565b935093505060608601356001600160401b0381111561387057613870600080fd5b6136f5888289016131e2565b6000806000806060858703121561389557613895600080fd5b60006138a187876130aa565b94505060206138b2878288016130be565b93505060408501356001600160401b038111156138d1576138d1600080fd5b6138dd878288016130c9565b95989497509550505050565b6000806000806080858703121561390257613902600080fd5b84356001600160401b0381111561391b5761391b600080fd5b613927878288016134bb565b94505060208501356001600160401b0381111561394657613946600080fd5b61395287828801613530565b93505060408501356001600160401b0381111561397157613971600080fd5b6133e8878288016135c1565b6001600160f81b0319811661307c565b60006139998383613090565b505060200190565b60006139ab825190565b80845260209384019383018060005b838110156139df5781516139ce888261398d565b9750602083019250506001016139ba565b509495945050505050565b60e081016139f8828a61397d565b8181036020830152613a0a8189613322565b90508181036040830152613a1e8188613322565b9050613a2d6060830187613090565b613a3a6080830186613376565b613a4760a0830185613090565b81810360c0830152613a5981846139a1565b9998505050505050505050565b65ffffffffffff811661307c565b6020810161098c8284613a66565b600080600060608486031215613a9a57613a9a600080fd5b6000613aa68686613396565b9350506020613ab7868287016130aa565b92505060408401356001600160401b03811115613ad657613ad6600080fd5b613ae2868287016131e2565b9150509250925092565b600061098c82613365565b61304181613aec565b803561098c81613af7565b600060208284031215613b2057613b20600080fd5b6000610b8e8484613b00565b600080600080600060a08688031215613b4757613b47600080fd5b6000613b538888613396565b9550506020613b6488828901613396565b94505060408601356001600160401b03811115613b8357613b83600080fd5b613b8f88828901613530565b93505060608601356001600160401b03811115613bae57613bae600080fd5b613bba88828901613530565b92505060808601356001600160401b0381111561387057613870600080fd5b60008060008060608587031215613bf257613bf2600080fd5b6000613bfe8787613396565b94505060206138b2878288016130aa565b60008060408385031215613c2557613c25600080fd5b6000613c318585613396565b9250506020613787858286016130aa565b600080600080600060a08688031215613c5d57613c5d600080fd5b6000613c698888613396565b9550506020613c7a88828901613396565b9450506040613c8b888289016130aa565b9350506060613bba888289016130aa565b6001600160a01b031690565b600061098c82600061098c6001600160a01b038316613c9c565b600061098c82613ca8565b61307c81613cc2565b6020810161098c8284613ccd565b6000613cf183858461319d565b50500190565b6000610b8e828486613ce4565b60ff811661307c565b60a08101613d1b8288613090565b613d286020830187613090565b613d356040830186613d04565b613d426060830185613090565b610f936080830184613090565b601881526000602082017f476f7665726e6f723a206f6e6c79476f7665726e616e636500000000000000008152915061301e565b6020808252810161098c81613d4f565b634e487b7160e01b600052602260045260246000fd5b600281046001821680613dbd57607f821691505b602082108103613dcf57613dcf613d93565b50919050565b602181526000602082017f476f7665726e6f723a2070726f706f73616c206e6f74207375636365737366758152601b60fa1b602082015291505b5060400190565b6020808252810161098c81613dd5565b805161098c816130a4565b600060208284031215613e4657613e46600080fd5b6000610b8e8484613e26565b60006139998383613376565b6000613e68825190565b80845260209384019383018060005b838110156139df578151613e8b8882613e52565b975060208301925050600101613e77565b60006112f28383613322565b6000613eb2825190565b80845260208401935083602082028501613ecc8560200190565b8060005b85811015613f015784840389528151613ee98582613e9c565b94506020830160209a909a0199925050600101613ed0565b5091979650505050505050565b600061098c6115d78381565b61307c81613f0e565b60a08082528101613f348188613e5e565b90508181036020830152613f4881876139a1565b90508181036040830152613f5c8186613ea8565b9050613d426060830185613f1a565b60c08082528101613f7c8189613e5e565b90508181036020830152613f9081886139a1565b90508181036040830152613fa48187613ea8565b9050613fb36060830186613f1a565b613fc06080830185613090565b611ccf60a0830184613090565b634e487b7160e01b600052601160045260246000fd5b8082018082111561098c5761098c613fcd565b604081016140048285613090565b6112f26020830184613090565b6060810161401f8286613090565b61402c6020830185613090565b610b8e6040830184613d04565b601c81526000602082017f476f7665726e6f723a20746f6f206c61746520746f2063616e63656c000000008152915061301e565b6020808252810161098c81614039565b602281526000602082017f476f7665726e6f723a206f6e6c792070726f706f7365722063616e2063616e63815261195b60f21b60208201529150613e0f565b6020808252810161098c8161407d565b60006140da6131b784613173565b9050828152602081018484840111156140f5576140f5600080fd5b612b248482856132fe565b600082601f83011261411457614114600080fd5b8151610b8e8482602086016140cc565b60006020828403121561413957614139600080fd5b81516001600160401b0381111561415257614152600080fd5b610b8e84828501614100565b8181038181111561098c5761098c613fcd565b634e487b7160e01b600052603260045260246000fd5b65ffffffffffff8116613041565b805161098c81614187565b6000602082840312156141b5576141b5600080fd5b6000610b8e8484614195565b608080825281016141d28187613e5e565b905081810360208301526141e681866139a1565b905081810360408301526141fa8185613ea8565b9050610ee36060830184613090565b61421283613f0e565b81546008840282811b60001990911b908116901990911617825550505050565b600061423f818484614209565b505050565b81811015612caf57614257600082614232565b600101614244565b601f82111561423f576000818152602090206020601f850104810160208510156142865750805b611a5d6020601f860104830182614244565b81516001600160401b038111156142b1576142b161311a565b6142bb8254613da9565b6142c682828561425f565b6020601f8311600181146142fa57600084156142e25750858201515b600019600886021c1981166002860217865550611a5b565b600085815260208120601f198616915b8281101561432a578885015182556020948501946001909201910161430a565b868310156143465784890151600019601f89166008021c191682555b600160028802018855505050505050505050565b602781526000602082017f53616665436173743a2076616c756520646f65736e27742066697420696e20328152663234206269747360c81b60208201529150613e0f565b6020808252810161098c8161435a565b602681526000602082017f53616665436173743a2076616c756520646f65736e27742066697420696e203381526532206269747360d01b60208201529150613e0f565b6020808252810161098c816143ae565b602681526000602082017f53616665436173743a2076616c756520646f65736e27742066697420696e203481526538206269747360d01b60208201529150613e0f565b6020808252810161098c81614401565b602381526000602082017f476f7665726e6f723a20766f7465206e6f742063757272656e746c792061637481526269766560e81b60208201529150613e0f565b6020808252810161098c81614454565b608081016144b28287613090565b6144bf6020830186613d04565b6144cc6040830185613090565b8181036060830152610f938184613322565b60a081016144ec8288613090565b6144f96020830187613d04565b6145066040830186613090565b81810360608301526145188185613322565b90508181036080830152611ccf8184613322565b6020808252810161098c81604381527f476f7665726e6f72566f74657351756f72756d4672616374696f6e3a2071756f60208201527f72756d4e756d657261746f72206f7665722071756f72756d44656e6f6d696e616040820152623a37b960e91b606082015260800190565b600060001982036145ac576145ac613fcd565b5060010190565b801515613041565b805161098c816145b3565b6000602082840312156145db576145db600080fd5b6000610b8e84846145bb565b601d81526000602082017f476f7665726e6f723a2070726f706f73657220726573747269637465640000008152915061301e565b6020808252810161098c816145e7565b603181526000602082017f476f7665726e6f723a2070726f706f73657220766f7465732062656c6f7720708152701c9bdc1bdcd85b081d1a1c995cda1bdb19607a1b60208201529150613e0f565b6020808252810161098c8161462b565b602181526000602082017f476f7665726e6f723a20696e76616c69642070726f706f73616c206c656e67748152600d60fb1b60208201529150613e0f565b6020808252810161098c81614689565b601881526000602082017f476f7665726e6f723a20656d7074792070726f706f73616c00000000000000008152915061301e565b6020808252810161098c816146d7565b602181526000602082017f476f7665726e6f723a2070726f706f73616c20616c72656164792065786973748152607360f81b60208201529150613e0f565b6020808252810161098c8161471b565b6000614773825190565b8084526020840193508360208202850161478d8560200190565b8060005b85811015613f0157848403895281516147aa8582613e9c565b94506020830160209a909a0199925050600101614791565b61012081016147d1828c613090565b6147de602083018b613376565b81810360408301526147f0818a613e5e565b9050818103606083015261480481896139a1565b905081810360808301526148188188614769565b905081810360a083015261482c8187613ea8565b905061483b60c0830186613090565b61484860e0830185613090565b81810361010083015261485b8184613322565b9b9a5050505050505050505050565b604081016140048285613376565b604081016148868285613376565b6112f26020830184613376565b8181028082158382048514176148ab576148ab613fcd565b5092915050565b634e487b7160e01b600052601260045260246000fd5b6000826148d7576148d76148b2565b500490565b600061098c825190565b60006148f0825190565b602083016148fd816148dc565b92506020821015611c1f57614919600019836020036008021b90565b9092169392505050565b601b81526000602082017f436865636b706f696e743a2064656372656173696e67206b65797300000000008152915061301e565b6020808252810161098c81614923565b608081016149758287613090565b6149826020830186613d04565b61498f6040830185613090565b610ee36060830184613090565b601881526000602082017f45434453413a20696e76616c6964207369676e617475726500000000000000008152915061301e565b6020808252810161098c8161499c565b601f81526000602082017f45434453413a20696e76616c6964207369676e6174757265206c656e677468008152915061301e565b6020808252810161098c816149e0565b602281526000602082017f45434453413a20696e76616c6964207369676e6174757265202773272076616c815261756560f01b60208201529150613e0f565b6020808252810161098c81614a24565b602781526000602082017f476f7665726e6f72566f74696e6753696d706c653a20766f746520616c726561815266191e4818d85cdd60ca1b60208201529150613e0f565b6020808252810161098c81614a73565b603581526000602082017f476f7665726e6f72566f74696e6753696d706c653a20696e76616c69642076618152746c756520666f7220656e756d20566f74655479706560581b60208201529150613e0f565b6020808252810161098c81614ac7565b601d81526000602082017f476f7665726e6f723a20756e6b6e6f776e2070726f706f73616c2069640000008152915061301e565b6020808252810161098c81614b29565b602681526000602082017f53616665436173743a2076616c756520646f65736e27742066697420696e203681526534206269747360d01b60208201529150613e0f565b6020808252810161098c81614b6d565b60a08101614bce8288613090565b614bdb6020830187613090565b614be86040830186613090565b614bf56060830185613090565b610f936080830184613376565b601d81526000602082017f476f7665726e6f723a2070726f706f73616c206e6f74206163746976650000008152915061301e565b6020808252810161098c81614c0256fe476f7665726e6f723a2072656c617920726576657274656420776974686f7574206d657373616765a26469706673582212202537f314ded6a3f775c5822b442921682703901d2677979b7787695d2947552064736f6c63430008110033",
  "devdoc": {
    "errors": {
      "Empty()": [
        {
          "details": "An operation (e.g. {front}) couldn't be completed due to the queue being empty."
        }
      ]
    },
    "kind": "dev",
    "methods": {
      "CLOCK_MODE()": {
        "details": "Machine-readable description of the clock as specified in EIP-6372."
      },
      "COUNTING_MODE()": {
        "details": "See {IGovernor-COUNTING_MODE}."
      },
      "cancel(address[],uint256[],bytes[],bytes32)": {
        "details": "See {IGovernor-cancel}."
      },
      "castVote(uint256,uint8)": {
        "details": "See {IGovernor-castVote}."
      },
      "castVoteBySig(uint256,uint8,uint8,bytes32,bytes32)": {
        "details": "See {IGovernor-castVoteBySig}."
      },
      "castVoteWithReason(uint256,uint8,string)": {
        "details": "See {IGovernor-castVoteWithReason}."
      },
      "castVoteWithReasonAndParams(uint256,uint8,string,bytes)": {
        "details": "See {IGovernor-castVoteWithReasonAndParams}."
      },
      "castVoteWithReasonAndParamsBySig(uint256,uint8,string,bytes,uint8,bytes32,bytes32)": {
        "details": "See {IGovernor-castVoteWithReasonAndParamsBySig}."
      },
      "clock()": {
        "details": "Clock (as specified in EIP-6372) is set to match the token's clock. Fallback to block numbers if the token does not implement EIP-6372."
      },
      "eip712Domain()": {
        "details": "See {EIP-5267}. _Available since v4.9._"
      },
      "execute(address[],uint256[],bytes[],bytes32)": {
        "details": "See {IGovernor-execute}."
      },
      "getVotesWithParams(address,uint256,bytes)": {
        "details": "See {IGovernor-getVotesWithParams}."
      },
      "hasVoted(uint256,address)": {
        "details": "See {IGovernor-hasVoted}."
      },
      "hashProposal(address[],uint256[],bytes[],bytes32)": {
        "details": "See {IGovernor-hashProposal}. The proposal id is produced by hashing the ABI encoded `targets` array, the `values` array, the `calldatas` array and the descriptionHash (bytes32 which itself is the keccak256 hash of the description string). This proposal id can be produced from the proposal data which is part of the {ProposalCreated} event. It can even be computed in advance, before the proposal is submitted. Note that the chainId and the governor address are not part of the proposal id computation. Consequently, the same proposal (with same operation and same description) will have the same id if submitted on multiple governors across multiple networks. This also means that in order to execute the same operation twice (on the same governor) the proposer will have to change the description in order to avoid proposal id conflicts."
      },
      "name()": {
        "details": "See {IGovernor-name}."
      },
      "onERC1155BatchReceived(address,address,uint256[],uint256[],bytes)": {
        "details": "See {IERC1155Receiver-onERC1155BatchReceived}."
      },
      "onERC1155Received(address,address,uint256,uint256,bytes)": {
        "details": "See {IERC1155Receiver-onERC1155Received}."
      },
      "onERC721Received(address,address,uint256,bytes)": {
        "details": "See {IERC721Receiver-onERC721Received}."
      },
      "proposalDeadline(uint256)": {
        "details": "See {IGovernor-proposalDeadline}."
      },
      "proposalEta(uint256)": {
        "details": "Public accessor to check the eta of a queued proposal"
      },
      "proposalProposer(uint256)": {
        "details": "Returns the account that created a given proposal."
      },
      "proposalSnapshot(uint256)": {
        "details": "See {IGovernor-proposalSnapshot}."
      },
      "proposalThreshold()": {
        "details": "Part of the Governor Bravo's interface: _\"The number of votes required in order for a voter to become a proposer\"_."
      },
      "proposalVotes(uint256)": {
        "details": "Accessor to the internal vote counts."
      },
      "queue(address[],uint256[],bytes[],bytes32)": {
        "details": "Function to queue a proposal to the timelock."
      },
      "quorumDenominator()": {
        "details": "Returns the quorum denominator. Defaults to 100, but may be overridden."
      },
      "quorumNumerator()": {
        "details": "Returns the current quorum numerator. See {quorumDenominator}."
      },
      "quorumNumerator(uint256)": {
        "details": "Returns the quorum numerator at a specific timepoint. See {quorumDenominator}."
      },
      "relay(address,uint256,bytes)": {
        "details": "Relays a transaction or function call to an arbitrary target. In cases where the governance executor is some contract other than the governor itself, like when using a timelock, this function can be invoked in a governance proposal to recover tokens or Ether that was sent to the governor contract by mistake. Note that if the executor is simply the governor itself, use of `relay` is redundant."
      },
      "timelock()": {
        "details": "Public accessor to check the address of the timelock"
      },
      "updateQuorumNumerator(uint256)": {
        "details": "Changes the quorum numerator. Emits a {QuorumNumeratorUpdated} event. Requirements: - Must be called through a governance proposal. - New numerator must be smaller or equal to the denominator."
      },
      "updateTimelock(address)": {
        "details": "Public endpoint to update the underlying timelock instance. Restricted to the timelock itself, so updates must be proposed, scheduled, and executed through governance proposals. CAUTION: It is not recommended to change the timelock while there are other queued governance proposals."
      },
      "version()": {
        "details": "See {IGovernor-version}."
      },
      "votingDelay()": {
        "details": "Delay, between the proposal is created and the vote starts. The unit this duration is expressed in depends on the clock (see EIP-6372) this contract uses. This can be increased to leave time for users to buy voting power, or delegate it, before the voting of a proposal starts."
      },
      "votingPeriod()": {
        "details": "Delay between the vote start and vote end. The unit this duration is expressed in depends on the clock (see EIP-6372) this contract uses. NOTE: The {votingDelay} can delay the start of the vote. This must be considered when setting the voting duration compared to the voting delay."
      }
    },
    "version": 1
  },
  "userdoc": {
    "kind": "user",
    "methods": {
      "votingDelay()": {
        "notice": "module:user-config"
      },
      "votingPeriod()": {
        "notice": "module:user-config"
      }
    },
    "version": 1
  },
  "storageLayout": {
    "storage": [
      {
        "astId": 8953,
        "contract": "contracts/governance_standard/GovernorContract.sol:GovernorContract",
        "label": "_nameFallback",
        "offset": 0,
        "slot": "0",
        "type": "t_string_storage"
      },
      {
        "astId": 8955,
        "contract": "contracts/governance_standard/GovernorContract.sol:GovernorContract",
        "label": "_versionFallback",
        "offset": 0,
        "slot": "1",
        "type": "t_string_storage"
      },
      {
        "astId": 444,
        "contract": "contracts/governance_standard/GovernorContract.sol:GovernorContract",
        "label": "_name",
        "offset": 0,
        "slot": "2",
        "type": "t_string_storage"
      },
      {
        "astId": 450,
        "contract": "contracts/governance_standard/GovernorContract.sol:GovernorContract",
        "label": "_proposals",
        "offset": 0,
        "slot": "3",
        "type": "t_mapping(t_uint256,t_struct(ProposalCore)442_storage)"
      },
      {
        "astId": 453,
        "contract": "contracts/governance_standard/GovernorContract.sol:GovernorContract",
        "label": "_governanceCall",
        "offset": 0,
        "slot": "4",
        "type": "t_struct(Bytes32Deque)11691_storage"
      },
      {
        "astId": 3281,
        "contract": "contracts/governance_standard/GovernorContract.sol:GovernorContract",
        "label": "_proposalVotes",
        "offset": 0,
        "slot": "6",
        "type": "t_mapping(t_uint256,t_struct(ProposalVote)3276_storage)"
      },
      {
        "astId": 3969,
        "contract": "contracts/governance_standard/GovernorContract.sol:GovernorContract",
        "label": "_quorumNumerator",
        "offset": 0,
        "slot": "7",
        "type": "t_uint256"
      },
      {
        "astId": 3973,
        "contract": "contracts/governance_standard/GovernorContract.sol:GovernorContract",
        "label": "_quorumNumeratorHistory",
        "offset": 0,
        "slot": "8",
        "type": "t_struct(Trace224)6903_storage"
      },
      {
        "astId": 3494,
        "contract": "contracts/governance_standard/GovernorContract.sol:GovernorContract",
        "label": "_timelock",
        "offset": 0,
        "slot": "9",
        "type": "t_contract(TimelockController)3255"
      },
      {
        "astId": 3498,
        "contract": "contracts/governance_standard/GovernorContract.sol:GovernorContract",
        "label": "_timelockIds",
        "offset": 0,
        "slot": "10",
        "type": "t_mapping(t_uint256,t_bytes32)"
      },
      {
        "astId": 12113,
        "contract": "contracts/governance_standard/GovernorContract.sol:GovernorContract",
        "label": "s_votingDelay",
        "offset": 0,
        "slot": "11",
        "type": "t_uint256"
      },
      {
        "astId": 12115,
        "contract": "contracts/governance_standard/GovernorContract.sol:GovernorContract",
        "label": "s_votingPeriod",
        "offset": 0,
        "slot": "12",
        "type": "t_uint256"
      }
    ],
    "types": {
      "t_address": {
        "encoding": "inplace",
        "label": "address",
        "numberOfBytes": "20"
      },
      "t_array(t_struct(Checkpoint224)6908_storage)dyn_storage": {
        "base": "t_struct(Checkpoint224)6908_storage",
        "encoding": "dynamic_array",
        "label": "struct Checkpoints.Checkpoint224[]",
        "numberOfBytes": "32"
      },
      "t_bool": {
        "encoding": "inplace",
        "label": "bool",
        "numberOfBytes": "1"
      },
      "t_bytes24": {
        "encoding": "inplace",
        "label": "bytes24",
        "numberOfBytes": "24"
      },
      "t_bytes32": {
        "encoding": "inplace",
        "label": "bytes32",
        "numberOfBytes": "32"
      },
      "t_bytes4": {
        "encoding": "inplace",
        "label": "bytes4",
        "numberOfBytes": "4"
      },
      "t_contract(TimelockController)3255": {
        "encoding": "inplace",
        "label": "contract TimelockController",
        "numberOfBytes": "20"
      },
      "t_int128": {
        "encoding": "inplace",
        "label": "int128",
        "numberOfBytes": "16"
      },
      "t_mapping(t_address,t_bool)": {
        "encoding": "mapping",
        "key": "t_address",
        "label": "mapping(address => bool)",
        "numberOfBytes": "32",
        "value": "t_bool"
      },
      "t_mapping(t_int128,t_bytes32)": {
        "encoding": "mapping",
        "key": "t_int128",
        "label": "mapping(int128 => bytes32)",
        "numberOfBytes": "32",
        "value": "t_bytes32"
      },
      "t_mapping(t_uint256,t_bytes32)": {
        "encoding": "mapping",
        "key": "t_uint256",
        "label": "mapping(uint256 => bytes32)",
        "numberOfBytes": "32",
        "value": "t_bytes32"
      },
      "t_mapping(t_uint256,t_struct(ProposalCore)442_storage)": {
        "encoding": "mapping",
        "key": "t_uint256",
        "label": "mapping(uint256 => struct Governor.ProposalCore)",
        "numberOfBytes": "32",
        "value": "t_struct(ProposalCore)442_storage"
      },
      "t_mapping(t_uint256,t_struct(ProposalVote)3276_storage)": {
        "encoding": "mapping",
        "key": "t_uint256",
        "label": "mapping(uint256 => struct GovernorCountingSimple.ProposalVote)",
        "numberOfBytes": "32",
        "value": "t_struct(ProposalVote)3276_storage"
      },
      "t_string_storage": {
        "encoding": "bytes",
        "label": "string",
        "numberOfBytes": "32"
      },
      "t_struct(Bytes32Deque)11691_storage": {
        "encoding": "inplace",
        "label": "struct DoubleEndedQueue.Bytes32Deque",
        "members": [
          {
            "astId": 11684,
            "contract": "contracts/governance_standard/GovernorContract.sol:GovernorContract",
            "label": "_begin",
            "offset": 0,
            "slot": "0",
            "type": "t_int128"
          },
          {
            "astId": 11686,
            "contract": "contracts/governance_standard/GovernorContract.sol:GovernorContract",
            "label": "_end",
            "offset": 16,
            "slot": "0",
            "type": "t_int128"
          },
          {
            "astId": 11690,
            "contract": "contracts/governance_standard/GovernorContract.sol:GovernorContract",
            "label": "_data",
            "offset": 0,
            "slot": "1",
            "type": "t_mapping(t_int128,t_bytes32)"
          }
        ],
        "numberOfBytes": "64"
      },
      "t_struct(Checkpoint224)6908_storage": {
        "encoding": "inplace",
        "label": "struct Checkpoints.Checkpoint224",
        "members": [
          {
            "astId": 6905,
            "contract": "contracts/governance_standard/GovernorContract.sol:GovernorContract",
            "label": "_key",
            "offset": 0,
            "slot": "0",
            "type": "t_uint32"
          },
          {
            "astId": 6907,
            "contract": "contracts/governance_standard/GovernorContract.sol:GovernorContract",
            "label": "_value",
            "offset": 4,
            "slot": "0",
            "type": "t_uint224"
          }
        ],
        "numberOfBytes": "32"
      },
      "t_struct(ProposalCore)442_storage": {
        "encoding": "inplace",
        "label": "struct Governor.ProposalCore",
        "members": [
          {
            "astId": 429,
            "contract": "contracts/governance_standard/GovernorContract.sol:GovernorContract",
            "label": "voteStart",
            "offset": 0,
            "slot": "0",
            "type": "t_uint64"
          },
          {
            "astId": 431,
            "contract": "contracts/governance_standard/GovernorContract.sol:GovernorContract",
            "label": "proposer",
            "offset": 8,
            "slot": "0",
            "type": "t_address"
          },
          {
            "astId": 433,
            "contract": "contracts/governance_standard/GovernorContract.sol:GovernorContract",
            "label": "__gap_unused0",
            "offset": 28,
            "slot": "0",
            "type": "t_bytes4"
          },
          {
            "astId": 435,
            "contract": "contracts/governance_standard/GovernorContract.sol:GovernorContract",
            "label": "voteEnd",
            "offset": 0,
            "slot": "1",
            "type": "t_uint64"
          },
          {
            "astId": 437,
            "contract": "contracts/governance_standard/GovernorContract.sol:GovernorContract",
            "label": "__gap_unused1",
            "offset": 8,
            "slot": "1",
            "type": "t_bytes24"
          },
          {
            "astId": 439,
            "contract": "contracts/governance_standard/GovernorContract.sol:GovernorContract",
            "label": "executed",
            "offset": 0,
            "slot": "2",
            "type": "t_bool"
          },
          {
            "astId": 441,
            "contract": "contracts/governance_standard/GovernorContract.sol:GovernorContract",
            "label": "canceled",
            "offset": 1,
            "slot": "2",
            "type": "t_bool"
          }
        ],
        "numberOfBytes": "96"
      },
      "t_struct(ProposalVote)3276_storage": {
        "encoding": "inplace",
        "label": "struct GovernorCountingSimple.ProposalVote",
        "members": [
          {
            "astId": 3267,
            "contract": "contracts/governance_standard/GovernorContract.sol:GovernorContract",
            "label": "againstVotes",
            "offset": 0,
            "slot": "0",
            "type": "t_uint256"
          },
          {
            "astId": 3269,
            "contract": "contracts/governance_standard/GovernorContract.sol:GovernorContract",
            "label": "forVotes",
            "offset": 0,
            "slot": "1",
            "type": "t_uint256"
          },
          {
            "astId": 3271,
            "contract": "contracts/governance_standard/GovernorContract.sol:GovernorContract",
            "label": "abstainVotes",
            "offset": 0,
            "slot": "2",
            "type": "t_uint256"
          },
          {
            "astId": 3275,
            "contract": "contracts/governance_standard/GovernorContract.sol:GovernorContract",
            "label": "hasVoted",
            "offset": 0,
            "slot": "3",
            "type": "t_mapping(t_address,t_bool)"
          }
        ],
        "numberOfBytes": "128"
      },
      "t_struct(Trace224)6903_storage": {
        "encoding": "inplace",
        "label": "struct Checkpoints.Trace224",
        "members": [
          {
            "astId": 6902,
            "contract": "contracts/governance_standard/GovernorContract.sol:GovernorContract",
            "label": "_checkpoints",
            "offset": 0,
            "slot": "0",
            "type": "t_array(t_struct(Checkpoint224)6908_storage)dyn_storage"
          }
        ],
        "numberOfBytes": "32"
      },
      "t_uint224": {
        "encoding": "inplace",
        "label": "uint224",
        "numberOfBytes": "28"
      },
      "t_uint256": {
        "encoding": "inplace",
        "label": "uint256",
        "numberOfBytes": "32"
      },
      "t_uint32": {
        "encoding": "inplace",
        "label": "uint32",
        "numberOfBytes": "4"
      },
      "t_uint64": {
        "encoding": "inplace",
        "label": "uint64",
        "numberOfBytes": "8"
      }
    }
  }
}