{
  "address": "0xa513E6E4b8f2a923D98304ec87F64353C4D5C853",
  "abi": [
    {
      "inputs": [],
      "name": "maxProjectsReached",
      "type": "error"
    },
    {
      "anonymous": false,
      "inputs": [
        {
          "indexed": true,
          "internalType": "address",
          "name": "previousOwner",
          "type": "address"
        },
        {
          "indexed": true,
          "internalType": "address",
          "name": "newOwner",
          "type": "address"
        }
      ],
      "name": "OwnershipTransferred",
      "type": "event"
    },
    {
      "anonymous": false,
      "inputs": [
        {
          "indexed": false,
          "internalType": "uint256",
          "name": "projectId",
          "type": "uint256"
        },
        {
          "indexed": false,
          "internalType": "string",
          "name": "problemStatement",
          "type": "string"
        },
        {
          "indexed": false,
          "internalType": "string",
          "name": "studentName",
          "type": "string"
        }
      ],
      "name": "projectAdded",
      "type": "event"
    },
    {
      "inputs": [
        {
          "internalType": "string",
          "name": "problemStatement",
          "type": "string"
        },
        {
          "internalType": "string",
          "name": "studentName",
          "type": "string"
        }
      ],
      "name": "addProject",
      "outputs": [],
      "stateMutability": "nonpayable",
      "type": "function"
    },
    {
      "inputs": [
        {
          "internalType": "uint256",
          "name": "projectId",
          "type": "uint256"
        }
      ],
      "name": "addVotes",
      "outputs": [],
      "stateMutability": "nonpayable",
      "type": "function"
    },
    {
      "inputs": [],
      "name": "currentProjects",
      "outputs": [
        {
          "internalType": "uint256",
          "name": "",
          "type": "uint256"
        }
      ],
      "stateMutability": "view",
      "type": "function"
    },
    {
      "inputs": [
        {
          "internalType": "uint256",
          "name": "",
          "type": "uint256"
        }
      ],
      "name": "data",
      "outputs": [
        {
          "internalType": "uint256",
          "name": "projectId",
          "type": "uint256"
        },
        {
          "internalType": "string",
          "name": "problemStatement",
          "type": "string"
        },
        {
          "internalType": "string",
          "name": "studentName",
          "type": "string"
        },
        {
          "internalType": "bool",
          "name": "fb",
          "type": "bool"
        }
      ],
      "stateMutability": "view",
      "type": "function"
    },
    {
      "inputs": [],
      "name": "maxNumProjects",
      "outputs": [
        {
          "internalType": "uint256",
          "name": "",
          "type": "uint256"
        }
      ],
      "stateMutability": "view",
      "type": "function"
    },
    {
      "inputs": [],
      "name": "owner",
      "outputs": [
        {
          "internalType": "address",
          "name": "",
          "type": "address"
        }
      ],
      "stateMutability": "view",
      "type": "function"
    },
    {
      "inputs": [],
      "name": "renounceOwnership",
      "outputs": [],
      "stateMutability": "nonpayable",
      "type": "function"
    },
    {
      "inputs": [
        {
          "internalType": "address",
          "name": "newOwner",
          "type": "address"
        }
      ],
      "name": "transferOwnership",
      "outputs": [],
      "stateMutability": "nonpayable",
      "type": "function"
    }
  ],
  "transactionHash": "0x589e25d7e52612e0b59c0d1b53e37079c71ff6ab73e8f7c0d40775c3c4d4a6dc",
  "args": [],
  "numDeployments": 1,
  "solcInputHash": "c44871bbead2338793030fd18b5d6f29",
  "bytecode": "0x60806040526038600155600060025534801561001a57600080fd5b5061002433610029565b610079565b600080546001600160a01b038381166001600160a01b0319831681178455604051919092169283917f8be0079c531659141344cd1fd0a4f28419497f9722a3daafe3b4186f6b6457e09190a35050565b6109c0806100886000396000f3fe608060405234801561001057600080fd5b50600436106100885760003560e01c8063980c308d1161005b578063980c308d146100e2578063a00f89ed146100f5578063f0ba8440146100fe578063f2fde38b1461012157600080fd5b80631a509bdb1461008d578063715018a6146100ac5780638da5cb5b146100b657806394a1be9c146100cf575b600080fd5b61009660015481565b6040516100a3919061042a565b60405180910390f35b6100b4610134565b005b6000546001600160a01b03166040516100a39190610458565b6100b46100dd36600461047e565b610148565b6100b46100f03660046105a2565b61016f565b61009660025481565b61011161010c36600461047e565b610229565b6040516100a39493929190610672565b6100b461012f3660046106d2565b610365565b61013c6103a8565b61014660006103d2565b565b6101506103a8565b600090815260036020819052604090912001805460ff19166001179055565b6001546002540361019357604051632e1e691960e01b815260040160405180910390fd5b60025460008181526003602052604090209081556001016101b483826107de565b50600280546000908152600360205260409020016101d282826107de565b50600280549060006101e3836108b8565b91905055507f108f36559fad7af46c996e718c2e49085b2ade286b04a50390a03d847215215b600254838360405161021d939291906108d2565b60405180910390a15050565b6003602052600090815260409020805460018201805491929161024b90610709565b80601f016020809104026020016040519081016040528092919081815260200182805461027790610709565b80156102c45780601f10610299576101008083540402835291602001916102c4565b820191906000526020600020905b8154815290600101906020018083116102a757829003601f168201915b5050505050908060020180546102d990610709565b80601f016020809104026020016040519081016040528092919081815260200182805461030590610709565b80156103525780601f1061032757610100808354040283529160200191610352565b820191906000526020600020905b81548152906001019060200180831161033557829003601f168201915b5050506003909301549192505060ff1684565b61036d6103a8565b6001600160a01b03811661039c5760405162461bcd60e51b815260040161039390610906565b60405180910390fd5b6103a5816103d2565b50565b6000546001600160a01b031633146101465760405162461bcd60e51b815260040161039390610950565b600080546001600160a01b038381166001600160a01b0319831681178455604051919092169283917f8be0079c531659141344cd1fd0a4f28419497f9722a3daafe3b4186f6b6457e09190a35050565b805b82525050565b602081016104388284610422565b92915050565b60006001600160a01b038216610438565b6104248161043e565b60208101610438828461044f565b805b81146103a557600080fd5b803561043881610466565b60006020828403121561049357610493600080fd5b600061049f8484610473565b949350505050565b634e487b7160e01b600052604160045260246000fd5b601f19601f830116810181811067ffffffffffffffff821117156104e3576104e36104a7565b6040525050565b60006104f560405190565b905061050182826104bd565b919050565b600067ffffffffffffffff821115610520576105206104a7565b601f19601f83011660200192915050565b82818337506000910152565b600061055061054b84610506565b6104ea565b90508281526020810184848401111561056b5761056b600080fd5b610576848285610531565b509392505050565b600082601f83011261059257610592600080fd5b813561049f84826020860161053d565b600080604083850312156105b8576105b8600080fd5b823567ffffffffffffffff8111156105d2576105d2600080fd5b6105de8582860161057e565b925050602083013567ffffffffffffffff8111156105fe576105fe600080fd5b61060a8582860161057e565b9150509250929050565b60005b8381101561062f578181015183820152602001610617565b50506000910152565b6000610642825190565b808452602084019350610659818560208601610614565b601f01601f19169290920192915050565b801515610424565b608081016106808287610422565b81810360208301526106928186610638565b905081810360408301526106a68185610638565b90506106b5606083018461066a565b95945050505050565b6104688161043e565b8035610438816106be565b6000602082840312156106e7576106e7600080fd5b600061049f84846106c7565b634e487b7160e01b600052602260045260246000fd5b60028104600182168061071d57607f821691505b60208210810361072f5761072f6106f3565b50919050565b60006104386107418381565b90565b61074d83610735565b81546008840282811b60001990911b908116901990911617825550505050565b600061077a818484610744565b505050565b8181101561079a5761079260008261076d565b60010161077f565b5050565b601f82111561077a576000818152602090206020601f850104810160208510156107c55750805b6107d76020601f86010483018261077f565b5050505050565b815167ffffffffffffffff8111156107f8576107f86104a7565b6108028254610709565b61080d82828561079e565b6020601f83116001811461084157600084156108295750858201515b600019600886021c198116600286021786555061089a565b600085815260208120601f198616915b828110156108715788850151825560209485019460019092019101610851565b8683101561088d5784890151600019601f89166008021c191682555b6001600288020188555050505b505050505050565b634e487b7160e01b600052601160045260246000fd5b600060001982036108cb576108cb6108a2565b5060010190565b606081016108e08286610422565b81810360208301526108f28185610638565b905081810360408301526106b58184610638565b6020808252810161043881602681527f4f776e61626c653a206e6577206f776e657220697320746865207a65726f206160208201526564647265737360d01b604082015260600190565b60208082528181019081527f4f776e61626c653a2063616c6c6572206973206e6f7420746865206f776e657260408301526060820161043856fea2646970667358221220600f9d02a17f72ef833c565f9205947a95ead54c9cece006f9bd246b2802d45864736f6c63430008110033",
  "devdoc": {
    "kind": "dev",
    "methods": {
      "owner()": {
        "details": "Returns the address of the current owner."
      },
      "renounceOwnership()": {
        "details": "Leaves the contract without owner. It will not be possible to call `onlyOwner` functions. Can only be called by the current owner. NOTE: Renouncing ownership will leave the contract without an owner, thereby disabling any functionality that is only available to the owner."
      },
      "transferOwnership(address)": {
        "details": "Transfers ownership of the contract to a new account (`newOwner`). Can only be called by the current owner."
      }
    },
    "version": 1
  },
  "userdoc": {
    "kind": "user",
    "methods": {},
    "version": 1
  },
  "storageLayout": {
    "storage": [
      {
        "astId": 7,
        "contract": "contracts/project.sol:project",
        "label": "_owner",
        "offset": 0,
        "slot": "0",
        "type": "t_address"
      },
      {
        "astId": 149,
        "contract": "contracts/project.sol:project",
        "label": "maxNumProjects",
        "offset": 0,
        "slot": "1",
        "type": "t_uint256"
      },
      {
        "astId": 152,
        "contract": "contracts/project.sol:project",
        "label": "currentProjects",
        "offset": 0,
        "slot": "2",
        "type": "t_uint256"
      },
      {
        "astId": 166,
        "contract": "contracts/project.sol:project",
        "label": "data",
        "offset": 0,
        "slot": "3",
        "type": "t_mapping(t_uint256,t_struct(projectDetails)161_storage)"
      }
    ],
    "types": {
      "t_address": {
        "encoding": "inplace",
        "label": "address",
        "numberOfBytes": "20"
      },
      "t_bool": {
        "encoding": "inplace",
        "label": "bool",
        "numberOfBytes": "1"
      },
      "t_mapping(t_uint256,t_struct(projectDetails)161_storage)": {
        "encoding": "mapping",
        "key": "t_uint256",
        "label": "mapping(uint256 => struct project.projectDetails)",
        "numberOfBytes": "32",
        "value": "t_struct(projectDetails)161_storage"
      },
      "t_string_storage": {
        "encoding": "bytes",
        "label": "string",
        "numberOfBytes": "32"
      },
      "t_struct(projectDetails)161_storage": {
        "encoding": "inplace",
        "label": "struct project.projectDetails",
        "members": [
          {
            "astId": 154,
            "contract": "contracts/project.sol:project",
            "label": "projectId",
            "offset": 0,
            "slot": "0",
            "type": "t_uint256"
          },
          {
            "astId": 156,
            "contract": "contracts/project.sol:project",
            "label": "problemStatement",
            "offset": 0,
            "slot": "1",
            "type": "t_string_storage"
          },
          {
            "astId": 158,
            "contract": "contracts/project.sol:project",
            "label": "studentName",
            "offset": 0,
            "slot": "2",
            "type": "t_string_storage"
          },
          {
            "astId": 160,
            "contract": "contracts/project.sol:project",
            "label": "fb",
            "offset": 0,
            "slot": "3",
            "type": "t_bool"
          }
        ],
        "numberOfBytes": "128"
      },
      "t_uint256": {
        "encoding": "inplace",
        "label": "uint256",
        "numberOfBytes": "32"
      }
    }
  }
}