{
  "_format": "hh-sol-artifact-1",
  "contractName": "project",
  "sourceName": "contracts/project.sol",
  "abi": [
    {
      "anonymous": false,
      "inputs": [
        {
          "indexed": true,
          "internalType": "address",
          "name": "previousOwner",
          "type": "address"
        },
        {
          "indexed": true,
          "internalType": "address",
          "name": "newOwner",
          "type": "address"
        }
      ],
      "name": "OwnershipTransferred",
      "type": "event"
    },
    {
      "anonymous": false,
      "inputs": [
        {
          "indexed": false,
          "internalType": "uint256",
          "name": "projectId",
          "type": "uint256"
        },
        {
          "indexed": false,
          "internalType": "string",
          "name": "problemStatement",
          "type": "string"
        },
        {
          "indexed": false,
          "internalType": "string",
          "name": "studentName",
          "type": "string"
        }
      ],
      "name": "projectAdded",
      "type": "event"
    },
    {
      "inputs": [
        {
          "internalType": "uint256",
          "name": "projectId",
          "type": "uint256"
        },
        {
          "internalType": "string",
          "name": "problemStatement",
          "type": "string"
        },
        {
          "internalType": "string",
          "name": "studentName",
          "type": "string"
        }
      ],
      "name": "addProject",
      "outputs": [],
      "stateMutability": "nonpayable",
      "type": "function"
    },
    {
      "inputs": [
        {
          "internalType": "uint256",
          "name": "projectId",
          "type": "uint256"
        },
        {
          "internalType": "uint256",
          "name": "votes",
          "type": "uint256"
        }
      ],
      "name": "addVotes",
      "outputs": [],
      "stateMutability": "nonpayable",
      "type": "function"
    },
    {
      "inputs": [],
      "name": "owner",
      "outputs": [
        {
          "internalType": "address",
          "name": "",
          "type": "address"
        }
      ],
      "stateMutability": "view",
      "type": "function"
    },
    {
      "inputs": [],
      "name": "renounceOwnership",
      "outputs": [],
      "stateMutability": "nonpayable",
      "type": "function"
    },
    {
      "inputs": [
        {
          "internalType": "address",
          "name": "newOwner",
          "type": "address"
        }
      ],
      "name": "transferOwnership",
      "outputs": [],
      "stateMutability": "nonpayable",
      "type": "function"
    }
  ],
  "bytecode": "0x608060405234801561001057600080fd5b5061001a3361001f565b61006f565b600080546001600160a01b038381166001600160a01b0319831681178455604051919092169283917f8be0079c531659141344cd1fd0a4f28419497f9722a3daafe3b4186f6b6457e09190a35050565b6107748061007e6000396000f3fe608060405234801561001057600080fd5b50600436106100575760003560e01c8063715018a61461005c5780637797933f14610066578063849d0faa146100795780638da5cb5b1461008c578063f2fde38b146100ae575b600080fd5b6100646100c1565b005b610064610074366004610249565b6100d5565b610064610087366004610389565b6100f2565b6000546001600160a01b03166040516100a5919061042f565b60405180910390f35b6100646100bc366004610451565b61016e565b6100c96101b1565b6100d360006101db565b565b6100dd6101b1565b60009182526001602052604090912060030155565b600083815260016020819052604090912084815501610111838261055d565b50600083815260016020526040902060020161012d828261055d565b507f108f36559fad7af46c996e718c2e49085b2ade286b04a50390a03d847215215b8383836040516101619392919061067d565b60405180910390a1505050565b6101766101b1565b6001600160a01b0381166101a55760405162461bcd60e51b815260040161019c906106ba565b60405180910390fd5b6101ae816101db565b50565b6000546001600160a01b031633146100d35760405162461bcd60e51b815260040161019c90610704565b600080546001600160a01b038381166001600160a01b0319831681178455604051919092169283917f8be0079c531659141344cd1fd0a4f28419497f9722a3daafe3b4186f6b6457e09190a35050565b805b81146101ae57600080fd5b80356102438161022b565b92915050565b6000806040838503121561025f5761025f600080fd5b600061026b8585610238565b925050602061027c85828601610238565b9150509250929050565b634e487b7160e01b600052604160045260246000fd5b601f19601f830116810181811067ffffffffffffffff821117156102c2576102c2610286565b6040525050565b60006102d460405190565b90506102e0828261029c565b919050565b600067ffffffffffffffff8211156102ff576102ff610286565b601f19601f83011660200192915050565b82818337506000910152565b600061032f61032a846102e5565b6102c9565b90508281526020810184848401111561034a5761034a600080fd5b610355848285610310565b509392505050565b600082601f83011261037157610371600080fd5b813561038184826020860161031c565b949350505050565b6000806000606084860312156103a1576103a1600080fd5b60006103ad8686610238565b935050602084013567ffffffffffffffff8111156103cd576103cd600080fd5b6103d98682870161035d565b925050604084013567ffffffffffffffff8111156103f9576103f9600080fd5b6104058682870161035d565b9150509250925092565b60006001600160a01b038216610243565b6104298161040f565b82525050565b602081016102438284610420565b61022d8161040f565b80356102438161043d565b60006020828403121561046657610466600080fd5b60006103818484610446565b634e487b7160e01b600052602260045260246000fd5b60028104600182168061049c57607f821691505b6020821081036104ae576104ae610472565b50919050565b60006102436104c08381565b90565b6104cc836104b4565b81546008840282811b60001990911b908116901990911617825550505050565b60006104f98184846104c3565b505050565b81811015610519576105116000826104ec565b6001016104fe565b5050565b601f8211156104f9576000818152602090206020601f850104810160208510156105445750805b6105566020601f8601048301826104fe565b5050505050565b815167ffffffffffffffff81111561057757610577610286565b6105818254610488565b61058c82828561051d565b6020601f8311600181146105c057600084156105a85750858201515b600019600886021c1981166002860217865550610619565b600085815260208120601f198616915b828110156105f057888501518255602094850194600190920191016105d0565b8683101561060c5784890151600019601f89166008021c191682555b6001600288020188555050505b505050505050565b80610429565b60005b8381101561064257818101518382015260200161062a565b50506000910152565b6000610655825190565b80845260208401935061066c818560208601610627565b601f01601f19169290920192915050565b6060810161068b8286610621565b818103602083015261069d818561064b565b905081810360408301526106b1818461064b565b95945050505050565b6020808252810161024381602681527f4f776e61626c653a206e6577206f776e657220697320746865207a65726f206160208201526564647265737360d01b604082015260600190565b60208082528181019081527f4f776e61626c653a2063616c6c6572206973206e6f7420746865206f776e657260408301526060820161024356fea26469706673582212207d8661f7769a9ec04d4f52a476e75bfb602aec3ffe3404f7736a7c9f2bd0622d64736f6c63430008110033",
  "linkReferences": {},
  "deployedLinkReferences": {}
}